:100000006F20805E1300000013000000130000004A
:100010001300000013000000130000001300000094
:100020001300000013000000130000001300000084
:08003000130000007300100032
:1000380000000000000000001C1D0000201D000042
:10004800000000002E250000000000000000000055
:1000580030250000322500000000000000000000EC
:100068003C09000000000000000200000000000041
:10007800382500003A2500003C2500003E250000F8
:1000880040250000422500004425000046250000C8
:10009800482500004A2500004C2500004E25000098
:1000A8005025000052250000542500005625000068
:1000B800582500005A2500005C2500005E25000038
:1000C8006025000062250000642500006625000008
:1000D800682500006A2500006C2500006E250000D8
:1000E80070250000722500007425000076250000A8
:1000F800782500007A2500007C2500007E25000078
:100108008025000082250000842500008625000047
:10011800882500008A2500008C2500008E25000017
:1001280090250000922500009425000096250000E7
:10013800982500009A2500009C2500009E250000B7
:10014800A0250000A2250000A4250000A625000087
:10015800A8250000AA250000AC250000AE25000057
:10016800B0250000B2250000B4250000B625000027
:10017800B8250000BA250000BC250000BE250000F7
:10018800C0250000C2250000C4250000C6250000C7
:10019800C8250000CA250000CC250000CE25000097
:1001A800D0250000D2250000D4250000D625000067
:1001B800D8250000DA250000DC250000DE25000037
:1001C800E0250000E2250000E4250000E625000007
:1001D8000000000000000000000000000000000017
:1001E8000000000000000000000000000000000007
:0801F8000000000000000000FF
:10020000130181F806C216C41AC61EC822CA26CC1B
:100210002ACE2ED032D236D43AD63ED842DA46DC76
:100220004ADECEC0D2C2D6C4DAC6DEC8E2CAE6CC46
:10023000EACEEED0F2D2F6D4FAD6FED8F3220030CF
:1002400096DA9702002083A262EB23A02200F32516
:1002500010342EC09305000273A0458003A1818154
:10026000EF10203917030020032343E90321030083
:10027000824273901234D652739002309240A2425E
:100280003243C2435244E244724582551256A2564A
:100290003257C2575258E25872598649164AA64AEE
:1002A000364BC64B564CE64C764D865D165EA65ECA
:1002B000365FC65F13018107730020301300000012
:1002C00013000000130000001300000013000000E2
:1002D00013000000130000001300000013000000D2
:1002E00013000000130000001300000013000000C2
:1002F00013000000130000001300000013000000B2
:1003000083A28181938202E073900234170100205E
:100310000321C1DE024182403243C2435244E244DF
:10032000724582551256A2563257C2575258E25859
:1003300072598649164AA64A364BC64B564CE64C6D
:10034000764D865D165EA65E365FC65FD652A1020A
:1003500073900230A24213018107828013000000D3
:100360001300000013000000130000001300000041
:100370001300000013000000130000001300000031
:100380001300000013000000130000001300000021
:100390001300000013000000130000001300000011
:1003A0001300000013000000130000001300000001
:1003B00013000000130000001300000013000000F1
:1003C00013000000130000001300000013000000E1
:1003D00013000000130000001300000013000000D1
:1003E00013000000130000001300000013000000C1
:1003F00013000000130000001300000013000000B1
:10040000F322003093F272FF130380781203B3E2F9
:100410006200711523205500130585FA10C12115BE
:100420002320050081426387020071152320050007
:10043000FD12D5BF71150CC18280000000000000C4
:1004400000000000000000000000000000000000AC
:10045000000000000000000000000000000000009C
:10046000000000000000000000000000000000008C
:10047000000000000000000000000000000000007C
:10048000000000000000000000000000000000006C
:10049000000000000000000000000000000000005C
:1004A000000000000000000000000000000000004C
:1004B000000000000000000000000000000000003C
:1004C000000000000000000000000000000000002C
:1004D000000000000000000000000000000000001C
:1004E000000000000000397101436EC619A0397187
:1004F00041536AC866CA62CC5ECE19A039710153F5
:100500005AD056D252D44ED64AD826DA22DC06DE4B
:1005100033016140828241114AC026C222C406C60C
:100520008282B24D4101024D924C224CB24B4101AC
:10053000024B924A224AB249410102499244224462
:10054000B240410182802A8309CA838305002300C7
:1005500073007D16050385056DFA82802A8311C616
:100560002300B3007D16050365FE82803707002057
:10057000130747139377F700A9CF9306F700C19AA3
:100580008D67958FBA973687B70600209386860BBE
:1005900098C223A20600BA97C117C19BB7060020D4
:1005A00023AAF60A23A2070023A00700B386E74088
:1005B00054C31CC3B707002023A6D70AB7070020DF
:1005C00023A8D70AB70700203707008023A0E70A2F
:1005D00082808D6755BFB70700209387870B3E87C2
:1005E0009C43E3EEA7FE54433306D700630CA600FA
:1005F00054413306D500638CC7001CC16303E5007A
:1006000008C382805041B29654C33A85D5B73706A5
:1006100000200326460B6389C700DC43BE9654C105
:100620001C439C431CC1D9BF10C1C9BFEFF2BFEE30
:100630002A84EF003041B707002083A7470BA1C7EA
:10064000B707002083A7070AE18FEDE39307F4FFC4
:100650003957636FF70C130704013D8819C493776A
:1006600007FFC107637EF70C3E8769CFB7070020FD
:1006700083A7070B63EAE70CB706002003A4860BE9
:100680009386860B29A0DD3565BFA2863E845C403B
:1006900063F4E7001C40F5FBB707002083A7470B76
:1006A0006386870A8442C1041C409CC25C40998FC7
:1006B0009306000263FAF6023305E4009376F50030
:1006C0008DC2A16793870780739007301166130668
:1006D000469C9305F00C11651305C59DEF10D0796C
:1006E00001A05CC158C0C53D5840B706002083A793
:1006F000060B998F23A8F60AB706002083A6C60A20
:1007000063F6D700B706002023A6F60AB707002035
:1007100083A7070AD98F5CC0232004003707002075
:100720008327870A85072324F70A21A0814411A083
:100730008144EF00D04E93F7F40099EB2685F5BB8A
:100740008144C5BF8144F5B78144E5B78144D5B73D
:10075000A167938707807390073011661306469C44
:100760009305001111651305C59DEF10F07001A0F0
:1007700051CDEFF25FDA2A84930405FF832745FF0A
:10078000370700200327070AB3F6E70085C683264C
:1007900005FFA9C2A1679387078073900730116690
:1007A0001306469C9305501211651305C59DEF1065
:1007B000B06C01A0A1679387078073900730116622
:1007C0001306469C9305401211651305C59DEF1055
:1007D000B06A01A01347F7FFF98F232AF5FEEF0057
:1007E0007026832644FF370700208327070BB69720
:1007F0002328F70A2685C533370700208327470AB1
:1008000085072322F70AEF00904105BB82809307FA
:1008100085005CC17D5718C55CC51CC92320050037
:1008200082802328050082809041FD576303F602F1
:1008300093078500BE86DC439843E37DE6FEDC42F9
:10084000DCC18CC794C5CCC288C91C4185071CC1BA
:1008500082801449EDB71C495441184598C654414B
:1008600054C3D8436309A7002328050098437D1784
:1008700098C3884382801845D8C3FDB7B7E700E026
:1008800041572387E7402386E740B7F700E023A0DE
:10089000070023A207008146014794C7D8C783A554
:1008A000C1801307803E33D6E502814690CBD4CB7E
:1008B0003D4798C38280EFF21FC6411102C6F3275D
:1008C00050303EC6B2478D8B0D476398E702B7871D
:1008D000002093870700BD8BA9C3A167938707807A
:1008E000739007301166130606A09305B00B1165CF
:1008F0001305C59DEF10505801A0A167938707808D
:10090000739007301166130606A09305600B1165FE
:100910001305C59DEF10505601A08D37B7E700E0D5
:10092000056723A0E710116723A0E710B707002091
:1009300023A00708F1320145410101B173110134CF
:10094000A1679387078073900730B7F700E023A271
:100950000700EF00D01011C5B7E700E0116723A032
:10096000E720A1679387878873900730731101345C
:1009700073002030A1679387078073900730370793
:1009800000208327070885072320F7088280B70700
:10099000002083A7070889CFFD17370700202320F1
:1009A000F70891E7A1679387878873900730828063
:1009B000EFF27FB6A16793870780739007301166C7
:1009C000130606A09305201011651305C59DEF10B1
:1009D000B04A01A0EFF23FB42A84693F1C5C89E76A
:1009E00005447537228591BE0144E5BFAA87304191
:1009F00001CE2E85D8473297D8C794476364D70075
:100A00009843D8C7CC4781B68280EFF2DFB0AA8482
:100A1000953703C454046204618421A07D146204E8
:100A20006184635C8000DC5089CB13854402EF0055
:100A300030536DD5EF00D071D5B7FD57A382F404C4
:100A4000B9370D3F03C444046204618421A07D14BE
:100A500062046184635C80009C4889CB1385040137
:100A6000EF0010506DD5EF00B06ED5B7FD57238263
:100A7000F404313FD9B4EFF21FAA1DC92A84AE8411
:100A80005C5D99C734410147B3B7D702B1E339C3BD
:100A9000A16793870780739007301166130646A1FC
:100AA0009305501411651305C59DEF10F03C01A08E
:100AB000A16793870780739007301166130646A1DC
:100AC0009305001111651305C59DEF10F03A01A0C3
:100AD000054775BF45351C40545C38403386E602F7
:100AE0003E9610C4232C04025CC0FD163307D702C7
:100AF000BA975CC4FD572302F404A302F4048DE00A
:100B00001C4881E7693505450DBC13050401EF005C
:100B100030456DD9B7E700E0116723A0E720DDB7C6
:100B200013050401ED3113054402D531E1BFAA8755
:100B30003A8591E518C15CDD2CC185452DBF10C3F8
:100B4000DDBFEFF2BF9B19CD2A84AE843289814785
:100B50003337B50205EB99E733059402930770FB31
:100B600063F4A702A167938707807390073011662B
:100B7000130646A19305601C11651305C59DEF1072
:100B8000B02F01A08547C1BF130585044534AA894C
:100B900001C92A87CA8613068504A6852285413F96
:100BA0004E856FF0FF98EFF27F95011132C61DC997
:100BB0002A84AE89A1C9EF00705A2A8935E5B24767
:100BC0006387070CA16793870780739007301166CE
:100BD000130646A19305A05511651305C59DEF1099
:100BE000B02901A0A1679387078073900730116631
:100BF000130646A19305105511651305C59DEF1009
:100C0000B02701A03C41C5DBA167938707807390A3
:100C100007301166130646A193055055116513055B
:100C2000C59DEF10702501A0014995A0CE852285B4
:100C3000753BFD1404DC1C4891E7913B05450561BB
:100C40006FF01F8F13050401EF0090317DD5B7E7DA
:100C500000E0116723A0E720CDB7153B0145C5B7DC
:100C60002808EF001041054915A82302040491A0AB
:100C7000A3020404B1A02285493BEF00407A01A8F9
:100C800022856133EF00A0792285A9333DE1DD3172
:100C9000045CC9FCB247F1D3E30409FCCD39EF0091
:100CA000605AC93983474404E207E1877D57E38EE0
:100CB000E7FA83475404E207E1877D57E38AE7FABE
:100CC000F9316C002808EF00303C5DF922851933BA
:100CD0005DD1B24513054402EF00501D2285353326
:100CE000EF00E0734DF5B7E700E0116723A0E720C0
:100CF00079BF0145A9B709C59DC50146014725A88A
:100D0000EFF27F81A16793870780739007301166A8
:100D1000130646A18565938585AC11651305C59DB0
:100D2000EF10901501A0828037360020130646137D
:100D3000369689A005079D4763EDE702B737002087
:100D40009316370093874713B697DC43E38EA7FCCF
:100D500075F2B73700209316370093874713B6977D
:100D60009C43E9FBB7370020938747133386F6008F
:100D7000D1B719C20CC248C28280EFF2CFF92A84DF
:100D8000AE843289C53E83474404E207E1877D573C
:100D90006380E70283475404E207E1877D57638C51
:100DA000E700F5361C5C99CB228585316FF0EFF8B2
:100DB00023020404C5B7A3020404E5B74A86A68546
:100DC00013054402EF00D012C5B7B707002083A770
:100DD000470F9C4399E7B70700207D5723A4E70CF2
:100DE0008280B707002083A7470FDC479843B707E7
:100DF000002023A4E70C8280EFF2EFF12A84085947
:100E0000EFF01F972285EFF0BF966FF00FF3EFF230
:100E1000EFEEAA89368ABA843E8942848327080382
:100E2000370700407D173A960A06B29793FA07FFF4
:100E3000B1C581483D48636E18013388150103032D
:100E4000080033081401230A6802630403008508BC
:100E5000D5B7A3010404B94763F59702A167938747
:100E600007807390073011661306C6A29305703988
:100E700011651305C59DEF10300001A0230A08027B
:100E8000D9BF44D464C02324040413054400EFF004
:100E90005F9913058401EFF0DF9800C8BD47858F87
:100EA0001CCC40D023060404A30604042307040436
:100EB000A307040423080404A30804045286CE856F
:100EC0005685EFF0EFD308C06304090023208900A2
:100ED0006FF00FE6EFF22FE4014431A893172400DE
:100EE000A29713952700B73700209387871D3E955B
:100EF000EFF0FF910504B947E3F287FEB734002015
:100F00001385441CEFF0BF90373400201305041BF9
:100F1000EFF0FF8F373500201305C519EFF03F8F35
:100F20003735002013058518EFF07F8E3735002008
:100F300013054517EFF0BF8D9384441CB7070020BD
:100F400023AA970E1304041BB707002023A8870EBB
:100F50006FF0AFDEEFF22FDC2A84EFF0BFA137078E
:100F600000208327870E85072324F70EB70700206C
:100F700083A7870F9DC3B707002083A7C70D9DE7F1
:100F8000B707002083A7870FD8575C5463E0E702B8
:100F9000B707002023AC870E11A8B707002023ACA9
:100FA000870E0327870E85476309F7083707002058
:100FB0008327C70C85072326F70C5454B707002056
:100FC00083A7070E63F6D700B707002023A0D70E2C
:100FD000B73700209387871D1397260036970A0797
:100FE0003E97584318C4104750C49306440054C257
:100FF00014C7505413172600B306C7008A06BE96BE
:1010000054C89442850632970A07BA9794C3EFF002
:101010001F98B707002083A7C70D91CFB7070020FF
:1010200083A7870FD8575C546377F700B7E700E0D2
:10103000116723A0E7206FF04FD0693D85BFB70748
:10104000002083A7C70EA1CBEFF2EFCCEFF09F9269
:10105000B737002093878718DC47C0471305440043
:10106000EFF06FFF370700208327870EFD1723243B
:10107000F70E370700208327C70EFD172326F70E2C
:10108000EFF0FF9022858D3BB707002083A7C70EA6
:10109000D5FF6FF08FCA8280EFF2EFC74D37FDBFEB
:1010A000EFF26FC72A84AE84B707002003A9470E6A
:1010B000B707002003A7870FA308070403A5870F1E
:1010C0001105EFF04FF9FD576307F4024A94B70793
:1010D000002083A7870FC0C3637D2405B7070020C6
:1010E00003A5070FB707002083A5870F9105EFF031
:1010F000AFF36FF08FC4F9D8B73700209387471745
:10110000D443370700200326870F14C60326870F12
:101110008C464CC60326870F1106D0C10326870FC5
:10112000110690C60327870F5CCB9843050798C329
:10113000C9B7B707002003A5470FB707002083A54D
:10114000870F9105EFF04FEEB707002083A7870CBC
:10115000E371F4FAB707002023A4870C59BFEFF21C
:101160000FB92A89AE89B284368ABA8A3E8B1315A2
:101170002600EFF0AFCB1DC92A8413054005EFF020
:10118000EFCAAA8B19CD00D981482A88DA875687F9
:10119000D2862686CE854A859D395E85653B054586
:1011A00039A02285EFF0CFDC7D5511A07D556FF081
:1011B0008FB7EFF24FB6B70700209387470C014770
:1011C0008146130600109165938545A405651305B6
:1011D000850971378547630BF500FD576303F504F7
:1011E000B707002083A747086FF02FB5EF00B02D99
:1011F0008547E314F5FEA167938707807390073056
:10120000B70700207D5723A4E70CB7070020054748
:1012100023AEE70CB707002023A2070EEFF0AFE9DB
:10122000C1B7A167938707807390073011661306D3
:10123000C6A285659385058411651305C59DEF10CC
:10124000A04301A0370700208327070C8507232030
:10125000F70C8280B707002003A5470E8280B707EE
:10126000002083A7070C6391071AEFF2CFAAB707F4
:10127000002003A4470E050423A2870E29ECB7071C
:10128000002083A7470F9C4395C3A16793870780DE
:101290007390073011661306C6A28565938575ACF9
:1012A00011651305C59DEF10203D01A037070020F3
:1012B0008326470FB707002003A6070F232AC70E70
:1012C00023A8D70E370700208327070D850723287B
:1012D000F70CEFF09FAFB707002083A7870C637F61
:1012E000F4020145B707002083A7870FD457B7370B
:1012F0000020139726003697931627009387871DA3
:10130000B6979843854763F3E7000545B707002084
:1013100083A7470D639307106FF02FA2014579A0B3
:10132000B70700207D5723A4E70C6DBFB707002047
:1013300023A4E70C45BFD44754C35DA023A40702F0
:101340001443FD1614C3D457370700200327070E94
:101350006376D700370700202320D70E37370020C9
:101360001307871D13962600369693162600BA9605
:10137000D44294C79046D0C74CC28CC6CC579396E3
:1013800025003388B600131628003A96D0CB1042B9
:101390000506931528002E9710C3D857B7070020CD
:1013A00083A7870FDC576363F7000545B707002065
:1013B00083A7470F9C43ADD7B707002083A7470FEC
:1013C000DC47DC47D843E363E4F6D84B9047D44787
:1013D00014C69047D0C2544393854700E38DB6F4BA
:1013E00023AA07001443FD1614C3985729DFD04FD2
:1013F000945314C6D04FD0C2504393868701E31F45
:10140000D6F2945354C31DBF370700208327870D9E
:101410008507232CF70C014582800545F5BDEFF2C9
:101420008F8FB707002083A7070C95E3A1679387E9
:1014300007807390073011661306C6A285659385F1
:10144000358B11651305C59DEF10002301A0EFF04A
:101450006FD2B707002003A7070C7D1723A0E70C66
:1014600083A7070C63940712B707002083A7870E92
:1014700089EB014429AA945354C31DA8D44754C3EB
:1014800081A88147373700200327C7194DCFB737C9
:1014900000209387C719DC47DC479857D04F9453F7
:1014A00014C6D04FD0C2504393868701E305D6FCC3
:1014B00023A407021443FD1614C3D84B9047D44706
:1014C00014C69047D0C2544393854700E388B6FAC8
:1014D00023AA07001443FD1614C3D0573707002072
:1014E0000327070E6376C700370700202320C70EA7
:1014F000373700201307871D93162600B2968A06F9
:10150000BA96D44294C79046D0C74CC28CC6CC572A
:10151000939625003386B6000A063A96D0CB104241
:101520000506AE968A06369710C3D45737070020B3
:101530000327870F5857E3E7E6F43707002085466F
:10154000232AD70C81B799C3EFF03F88B707002053
:1015500003A4870D19ECB707002003A4470D05C8A5
:10156000B7E700E0116723A0E72005440DA07D1434
:1015700009C8F5316DDDB7070020054723AAE70C40
:10158000FDB7B707002023AC070CF1B70144EFF01B
:101590000FC022856FE07FFA39C5EFE2DFF72A84BA
:1015A000B707002083A7070C8DC3A1679387078027
:1015B0007390073011661306C6A293059054116507
:1015C0001305C59DEF10400B01A0AD398145228563
:1015D000EFF01FADA93511E5B7E700E0116723A0D3
:1015E000E7206FE09FF5B7E700E0116723A0E72051
:1015F0008280B707002083A7070C99C7B707002090
:10160000054723AAE70C8280B707002023AA070C0E
:10161000B707002003A7070EB7370020931627004F
:10162000BA96139626009387871DB2979C439DE731
:1016300019C37D17D5B7EFE21FEEA1679387078027
:101640007390073011661306C6A28565938525C081
:1016500011651305C59DEF10200201A0B7370020CA
:101660009387871DB297D443D442D4C3A10763871D
:10167000F602B737002093162700BA961396260075
:101680009387871DB297DC43D447B707002023AC6C
:10169000D70EB707002023A0E70E8280CC42B737D1
:1016A00000209387871DB297CCC3E1B7EFE2BFE676
:1016B00019CD2E84B707002083A5870FE105EFF031
:1016C000AF9685452285EFF0BF9D6FE01FE7A167CC
:1016D000938707807390073011661306C6A285654D
:1016E0009385C5C111651305C59DEF00F07801A074
:1016F000EFE27FE2AA8721C52E85B285D443370762
:1017000000200326870F54CE0326870F03A88600E8
:10171000232006030326870F61062322C800032621
:10172000870F610690C60327870F1CD798430507CC
:1017300098C391C17D55EFF0BF966FE01FE0A167A0
:10174000938707807390073011661306C6A28565DC
:10175000938525C511651305C59DEF00F07101A0A6
:101760005C45DC47CDCF9857D04F945314C6D04F2B
:10177000D0C25443138687016386C60C23A4070294
:101780001443FD1614C3370700200327070C69E331
:10179000D84B9047D44714C69047D0C25443938542
:1017A00047006384B60A23AA07001443FD1614C336
:1017B000D057370700200327070E6376C700370787
:1017C00000202320C70E373700201307871D9316EC
:1017D0002600B2968A06BA96D44294C79046D0C7DD
:1017E0004CC28CC6CC57939625003386B6000A06A9
:1017F0003A96D0CB10420506AE968A06369710C3AD
:10180000D857B707002083A7870FDC5763F1E70697
:10181000B7070020054723AAE70C05458280EFE2C1
:101820009FCFA167938707807390073011661306D7
:10183000C6A28565938525C811651305C59DEF0072
:10184000B06301A0945354C315BFD44754C3A1BF80
:10185000373700201307C7195443D4CF8C468CD395
:10186000D0C190C698D71443850614C351BF014513
:101870008280B707002083A7070D1CC1B70700208F
:1018800083A7470E5CC18280EFE2FFC821C12A8492
:10189000AE84B1CDEFF00F8EB707002003A7470E3F
:1018A0005C403306F740B706002083A6860F83C648
:1018B0001605B9CEB707002083A7870FA3880704B2
:1018C0000544EFF0CF8C22856FE03FC7A167938777
:1018D00007807390073011661306C6A2856593854D
:1018E000D5CF11651305C59DEF00105901A0A16763
:1018F000938707807390073011661306C6A285652B
:101900009385E5CF11651305C59DEF00F05601A045
:101910009440FD55638CB6020840B705002083A5AE
:10192000050D6308B5006366F70023A004000544B5
:1019300049BF6366D60023A00400054459B7998FB8
:10194000B6979CC0228535370144A5BF014495BF99
:10195000B7070020054723AAE70C8280B7070020BD
:1019600083A7C70D91CBB707002083A7070C99C3A6
:10197000014582800945828005458280B7070020A5
:1019800003A7C7101C4399E785471CC191E75C4733
:10199000884382808147D5BF01458280EFE2BFB78F
:1019A0004CC108C96363B602158E1C4D6365F60011
:1019B00005456FE09FB893054500B707002003A5D4
:1019C0008710EFE07FE60145EDB76374D60063FC56
:1019D000D50093054500B707002003A5C710EFE029
:1019E000BFE40145F9B70545E9B7EFE2DFB22A8464
:1019F000AE84328931A01C4CBE941C502285829743
:101A00000C4CA6864A86A6952285493F6DF56FE067
:101A1000DFB2EFE25FB0AA842E89B707002083A768
:101A2000C710DC47C04713054400EFE0DFE28347FF
:101A3000440213F7470009EBF99B2302F4021C5000
:101A4000228582976FE07FAF4A86A6852285713F07
:101A5000FDB7B707002083A7C71098430DCBEFE26F
:101A60009FABDC47FD5588436D37B707002083A740
:101A7000C71098437DF73707002003268710B70665
:101A8000002023A6C6102324F7106FE01FAB3707F2
:101A9000002003268710B706002023A6C6102324A3
:101AA000F7108280EFE23FA7AA84EFF0AFFA2A8412
:101AB000B707002083A7C70F636BF50023A00400BE
:101AC000B707002023AE870E22856FE01FA751378E
:101AD00085479CC0F5B7EFE21FA441112A892E84E7
:101AE000EFF04FF668007D3FB247B9E7AA841DE8E2
:101AF000637425032286B3059940B707002003A528
:101B00004710EFF08FA7EFF09F910DE9B7E700E0E6
:101B1000116723A0E7201DA0EFF07F90A6854A85DE
:101B2000CD3D29A83707002003278710184319E364
:101B30000544C9B73E847DBFEFF07F8E41016FE061
:101B4000DF9FEFE25F9D011121A0C24763D407022E
:101B500001460C08B707002003A54710EFF0AF843B
:101B60006301050EC247E3D207FEF2456245D24744
:101B70008297E1BF62445C4889C713054400EFE0E7
:101B80009FCD68000537AA84C2472547E362F7FC6A
:101B90008A071167130747A6BA979C438287834732
:101BA000440293E717002302F402D2460C4C2A8623
:101BB000B6952285E53349DD8347440213F7470094
:101BC00001EBF99B2302F4021C502285829749B74E
:101BD0001C4C2686D245BE952285013DF5B783472C
:101BE0004402F99B2302F402A5B78347440293E71A
:101BF00017002302F402D2450CCC99C5AA862A8686
:101C0000AA952285613BA9B7A16793870780739046
:101C1000073011661306C6A49305903511651305A8
:101C2000C59DEF00702501A08347440213F72700EC
:101C300009C7F99B2302F40221BF2285EFE05FB3BD
:101C400001BF05616FE07F8FEFE2FF8C41116800FB
:101C5000EFF0DFD2B2454135ED35D5BFEFE2BF8BB6
:101C6000EFE05FD1B707002083A7471089C7EFE0F7
:101C70001FD26FE09F8CB734002013858431EFE0D2
:101C80001FB93734002013054430EFE05FB8938468
:101C90008431B707002023A6971013044430B707F8
:101CA000002023A487100146C1451145EFE07FE9DC
:101CB000B707002023A2A7105DD991659385C5A819
:101CC000EFF06F836DB7EFE21F85493FB707002044
:101CD00083A7471095C3B70700209387071039479C
:101CE0008146130600109165938545A90965130582
:101CF00085C4EFF0CFC60DE1A1679387078073908D
:101D0000073011661306C6A49305901111651305DB
:101D1000C59DEF00701601A06FE03F827300203078
:101D200001A0EFE24FFF01112A84854511651105DD
:101D3000EF00C06C93070020FC828D473ECCE1474A
:101D40003ECE4C083715014013050580292122C2DB
:101D5000231401002315010023160100231801009C
:101D6000A1477C874C003744014013050480EF00F5
:101D7000C06A854513050480EF00007805616FE0B7
:101D8000CFFBEFE2AFF72E84B289814405A893051B
:101D900000043745014013050580EF00207865D920
:101DA0001309140083050400C205C18137450140B1
:101DB00013050580EF00007685044A84E3C934FDED
:101DC0004E856FE0EFF6AA8703A58180AA97373783
:101DD00000201307C73263EBE700378700201307A3
:101DE00007806367F70023A4F18082807D5582809D
:101DF0007D558280EFE22FF211651305C5A9EF0032
:101E0000D01BA1653714014013050480292913054F
:101E1000A00FEFF06FF8A1651305048039211305B9
:101E2000A00FEFF06FF7C9BFEFE2EFEE11651305FA
:101E3000C5AAEF009018C14537140140130504C02E
:101E4000ED261305401FEFF02FF5C145130504C023
:101E5000D92E1305401FEFF02FF4C9BFEFE2AFEB0F
:101E6000411102C202C402C685451145412BE177EA
:101E70007C82414422C60D494AC44C00B71401403B
:101E800013850480C92C854521458D2B608222C68F
:101E90004AC44C00138504C07D2C41016FE0EFE97A
:101EA000EFE26FE709456126492A716513050520B0
:101EB0008D3D83A5C18011651305C5ABEF00C07BC7
:101EC0007124AA8511651305C5ACEF00E07A916510
:101ED0009385C5AD1165130545AEEF00E079BD3FB3
:101EE000B707002093870711154781461306001096
:101EF0009165938545B00965130585E2EFF02FA63E
:101F0000B707002093874711154781461306001035
:101F100091659385C5B00965130545DFEFF02FA4E2
:101F2000EFF02FA91165130545B1EF001009DDBFD2
:101F3000411102C602C4371702401C43C166D58F47
:101F40001CC3B71702409C4337070200F98F3EC4F9
:101F5000B24785073EC6A24789E732478567E31245
:101F6000F7FEB71702409C4337070200F98F89CB71
:101F700085473EC4224785476306F70041018280BA
:101F800002C4CDBFB7170240D843D8C3D843D8C383
:101F9000D84313670740D8C3D843B706C1FFFD161F
:101FA000758FD8C3D843C166558FD8C39843B70639
:101FB0000001558F98C3B71702409C4337070002B2
:101FC000F98FF5DBB7170240D843719BD8C3D843CC
:101FD00013672700D8C3B7170240DC43B18B2147F2
:101FE000E39BE7FE61BFA9B7B717024098431367A9
:101FF000170098C3D843B706FFF8758FD8C3984326
:10200000B706F7FEFD16758F98C39843B706FCFF19
:10201000FD16758F98C3D843B70681FFFD16758FDF
:10202000D8C39843B70600ECFD16758F98C33707E1
:10203000FF0098C723A607027DB7B7170240DC430D
:10204000B18B11476385E70421476389E70481CB9E
:10205000B7177A009387072023A6F18039A0B71716
:102060007A009387072023A6F180B7170240D84350
:1020700011833D8BB707002093870700BA979423FD
:1020800083A7C180B3D7D70023A6F1808280B7177A
:102090007A009387072023A6F180C1BF371702403B
:1020A0005C435843C166758FC983BD8B89078946D8
:1020B0006382D704BD466381D704C1466381D704D8
:1020C000814645466380C70429EB37470240032712
:1020D0000780418B15CB37177A0013070720B3878A
:1020E000E70223A6F180D1D283A7C180858323A6EE
:1020F000F180A5BFC947D1B78546B547D9B7814655
:10210000BD47D9B7C147C9B737173D001307079077
:10211000B387E70223A6F180F9B737170240584387
:1021200037060200718F11CB37173D001307079058
:10213000B387E70223A6F1807DB737177A0013072C
:102140000720B387E70223A6F18071BFB7F7FF1F0F
:1021500003A5477082809C4593F8F700C18B81C727
:10216000DC41B3E8F8009C21B9CB03280500014706
:1021700019A05CC905079D4763E1E7048547B3974C
:10218000E7009621FD8EE397D7FE13162700BD4684
:10219000B396C60093C6F6FF33F806013396C8001F
:1021A00033680601944513068002E384C6FC1306D7
:1021B0008004E391C6FC1CC975BF232005019A2148
:1021C0009307F00F63F0E70603284500014739A0A5
:1021D0009045930680046303D60405079D4763E199
:1021E000E704930687008547B397D7009621FD8EB5
:1021F000E395D7FE13162700BD46B396C60093C6D7
:10220000F6FF33F806013396C8003368060190459F
:1022100093068002E31ED6FA5CC95DBF1CC975BF78
:102220002322050182800CC982804CC98280B707B5
:10223000002023ACA7108280B7170240DC43B18B8B
:102240001147638DE70621476380E70899C7B717F1
:102250007A00938707201CC131A0B7177A009387B3
:1022600007201CC1371602405C429183BD8B3707A3
:10227000002013070701BA9794231C41B3D7D70056
:102280005CC15442A1829D8ABA969422B3D6D700EB
:1022900014C55442AD829D8A36971823B3D7E70000
:1022A0005CC5584239830D8B93860181369718237C
:1022B0001377F70FB3D7E7021CC98280B7177A00EC
:1022C000938707201CC179BF371702405C435843EE
:1022D000C166758FC983BD8B8907B7F6FF1F83A6BB
:1022E000C6701166F18E85E6C5466386D7048146C1
:1022F0002DE33747024003270780418B39C3371747
:102300007A0013070720B387E7021CC161A889463A
:10231000638ED700BD46638DD700C1466380D70268
:1023200081464546E396C7FCC147D9B7C947F5B7CB
:102330008546B547FDB78146C9475DBF8146BD4764
:1023400045BF37173D0013070790B387E7021CC14D
:1023500091A83717024058574166718F59C3B71576
:102360000240D05511823D8A050637177A001307BF
:1023700007203357C70218C1D05521823D8A0DEA84
:10238000131627003297058318C1104137170240F2
:1023900058573D8B05073357E60218C11841B3075C
:1023A000F7021CC1E38006EC1C4185831CC15DBDA6
:1023B0008545630AB600BD45630FB60009063307BD
:1023C000C70218C1D9B7131617003A960E063297EE
:1023D000058318C15DBF1316270032970A0718C17D
:1023E0006DB73717024050573D8A050637177A00F8
:1023F000130707203357C70218C14DB799C53717C0
:1024000002401C4FC98F1CCF8280371702401C4FDF
:102410001345F5FFE98F1CCF8280EFE2CF8F0111CA
:102420002A84AE841A29FE21F576FD16758FD98F80
:102430001EA95A25D6219225BE25D18ED58FFD768F
:102440009386369F758FD98F5EA55E29C207C1839B
:10245000DA2593F7F7CFD98F5EA96800EFF0DFDDBB
:10246000B7470140938707806302F40652475E2412
:10247000C207C18763CE070493171700BA978E0768
:10248000BA9798400A07B3D7E7029305400633D7B7
:10249000B70293164700370600107D16718F330779
:1024A000B702998F5A2442074187634D070292076A
:1024B0009387270313074006B3D7E702BD8BD58F59
:1024C000C207C1831EA405616FE02F87624745B72D
:1024D00093171700BA978E07BA9798400607B3D795
:1024E000E70265B78E079387270313074006B3D724
:1024F000E7029D8BD58FE9B781C95E250967D98F22
:10250000C207C1835EA582805E2579777D17F98F2A
:102510005EA5828093F5F51F4EA182801E21ED8F6E
:1025200099C3054582800145828001A001A001A0D8
:1025300001A001A001A001A001A001A001A001A093
:1025400001A001A001A001A001A001A001A001A083
:1025500001A001A001A001A001A001A001A001A073
:1025600001A001A001A001A001A001A001A001A063
:1025700001A001A001A001A001A001A001A001A053
:1025800001A001A001A001A001A001A001A001A043
:1025900001A001A001A001A001A001A001A001A033
:1025A00001A001A001A001A001A001A001A001A023
:1025B00001A001A001A001A001A001A001A001A013
:1025C00001A001A001A001A001A001A001A001A003
:1025D00001A001A001A001A001A001A001A001A0F3
:1025E00001A001A001A001A097E1FF1F9381812913
:1025F00017610020130101A1171500001305856262
:1026000097E5FF1F938505A01386018263FAC50035
:102610008322050023A0550011059105E3EAC5FEBC
:1026200017E5FF1F130505A897150020938545D0D2
:102630006377B500232005001105E36DB5FEFD426B
:10264000739002BCFD4273904280A162938202802B
:1026500073A0023097E2FFFF9382429E93E2320022
:1026600073905230EFF05F9897020000938282835C
:1026700073901234730020305D7122D406D62A8400
:102680002EDA32DC36DEBAC0BEC2C2C4C6C603A56C
:10269000418111C51C4D81E72AC6AD2332450C4549
:1026A0005418228636CEEF003025B2502254616194
:1026B0008280011126CA06CE22CC4AC84EC652C418
:1026C000AA8419E11C4502901C4D2E89BDE31D2BE7
:1026D0009C4C8044ADC39717000093876749631FE4
:1026E000F404C0407C50858B81EB5E2493F7072077
:1026F00081E7284CEF0080695E24A18B99C31C48B8
:10270000DDE3A2852685A52A59CDFD547C50858B15
:1027100081EB5E2493F7072081E7284CEF002067C8
:10272000F24062444249B249224A2685D2440561B8
:10273000828000454DB72685F12171BF97170000B3
:10274000938707416314F400804469BF9717000022
:102750009387073EE318F4F8C04469B71CC4050921
:1027600063C807021C401387170018C08CA31C44C1
:1027700083450900FD17FDF11CC463D907022286B9
:10278000A94526853D28FD57E301F5F8A944BDBFBD
:10279000184C63C4E700E39745FD22862685152083
:1027A000E31735FD9DB7FD59294AD1B71C40138762
:1027B000170018C0294798A3D1BFAA8503A5418156
:1027C000CDBD011122CC26CA4AC806CE4EC6AA8467
:1027D0002E89328401C51C4D91E32D2197170000ED
:1027E000938707396317F402C0401C4C1CC45E2455
:1027F000A18B99C31C4895EFA2852685492015C950
:102800007D59F2406244D244B2494A854249056149
:102810008280971700009387A7336314F4008044E5
:10282000E9B7971700009387A730E310F4FCC04482
:102830006DBF1C4808409379F90F1379F90F1D8D6E
:102840005C486346F500A2852685912C55F91C4409
:102850000505FD171CC41C401387170018C02380F2
:1028600037015C486388A7005E24858BD9DBA947C4
:10287000E319F9F8A28526851D2441D551B74111E8
:1028800022C426C24AC006C683A441812A892E8456
:1028900089C49C4C99E32685B52697170000938739
:1028A000272D6313F402C0408317C40013F7870079
:1028B00025E713F707010DEB25472320E90093E7F0
:1028C00007045EA47D5571A09717000093874728E1
:1028D0006314F4008044C9BF97170000938747250D
:1028E000E314F4FCC044C9B7918B9DC34C5889C90B
:1028F000930744046384F5004A855923232A04027C
:102900005E242322040093F7B7FD5EA41C481CC07C
:102910005E2493E787005EA41C4899EB5E241307AE
:10292000002093F707286385E700A2854A8575296B
:102930008317C40013F717001DC35848232404004D
:102940003307E04018CC1848014501E713F70708A2
:102950003DF7B2402244924402494101828013F77C
:102960002700814611E3544814C4F1BF8397C50082
:10297000011122CC26CA06CE4AC84EC613F78700DC
:10298000AA842E8479E3D8416345E000B8416356B8
:10299000E008585459C3B18303A90400858B23A0D0
:1029A00004000C50A9CB70485E24918B99C75C4001
:1029B0001D8E5C5899C33C401D8E5C540C50814662
:1029C00026858297FD57630CF5041C480567232272
:1029D00004001CC05E24F98F91C368C84C5823A022
:1029E000240185CD930744046384F5002685492995
:1029F000232A04021DA00146854626850297FD571D
:102A00002A86E313F5FA9C40C5D375476385E70032
:102A100059476395E70623A024010145B5A09840D6
:102A20008317C40001CFF5466305D700D946631963
:102A3000D7041C48232204001CC04DB71848B1839A
:102A40002322040018C0858B41BF83A90501E386BA
:102A500009FC03A905008D8B23A0350133093941F9
:102A6000014791E3D84918C4E35920FB1C540C508A
:102A7000CA864E8626858297634FA0008317C400BE
:102A800093E707045EA47D55F2406244D244424974
:102A9000B24905618280AA993309A940F1B79C49DE
:102AA000411106C622C426C281EB8144B2402244B1
:102AB0002685924441018280AA842E8401C51C4D42
:102AC00091E38922971700009387870A631DF40218
:102AD000C0408317C400F1DB7850058B11E793F7F2
:102AE000072099E3284C5D242685A285EFF01FE896
:102AF0007C50AA84858BDDFB5E2493F70720DDF7ED
:102B0000284C712465B797170000938767046314F6
:102B1000F40080447DBF9717000093876701E31A94
:102B2000F4FAC0447DB7411122C406C62A844EA5DA
:102B300072A523200500232205002324050023225B
:102B4000050623280500232A0500232C050021461D
:102B500081451305C505EFD07FA097170000938727
:102B6000E7885CD0971700009387078B1CD49717D2
:102B700000009387E78E5CD49717000093874791F6
:102B8000B24000D01CD82244410182809705000049
:102B9000938525F179A2411126C29307800693847B
:102BA000F5FFB384F4024AC02E8922C406C6938579
:102BB0004407F1262A8401CD232005002322250184
:102BC000310508C4138684068145EFD03F99B24091
:102BD00022852244924402494101828017D5FF1F79
:102BE0001305455465A217D5FF1F1305A55345A22C
:102BF00017D5FF1F1305455351AA17D5FF1F1305FE
:102C0000A55271A2411122C406C62A84D5371C4C94
:102C100089C72244B2404101CDB79707000093878E
:102C200027F71CD4232404042326040423280404A3
:102C300083A7C1816394870085471CCC2285152812
:102C400048C022853D2008C42285252048C448402C
:102C500001469145EFF03FED08440546A545EFF0EC
:102C60009FEC48440946C945EFF0FFEB85471CCC73
:102C70004DB7411126C24AC006C622C42A89EFF0C8
:102C8000FFF583A4C1819C4C81E72685EFF09FF777
:102C9000938484048044DC40FD1763D607009C4085
:102CA000A5C78440C5BF0317C40021EFC1778507BE
:102CB0005CC41305840523220406C128EFF0BFF28B
:102CC0002146232004002324040023220400232877
:102CD0000400232A0400232C040081451305C405A5
:102CE000EFD0DF87232A0402232C040223240404C8
:102CF00023260404B2402285224492440249410121
:102D000082801304840649BF91454A85EFF0BFE8ED
:102D100088C02A8459F5EFF01FEDB1472320F90050
:102D2000D1BF797122D44AD04ECE52CC5AC85EC699
:102D300006D626D256CA2A892E8A130485048149CA
:102D4000054BFD5B0444832A4400FD1A63D00A024C
:102D500000406DF8B250225492540259624AD24A4D
:102D6000424BB24B4E85F24945618280DE24637B43
:102D7000FB008397E40063877701A6854A85029A62
:102D8000B3E9A90093848406C9B7828082808280D7
:102D90005971A2D42E848395E500A6D2CAD086D6D6
:102DA000B284368963D205025E2493F7070895EB57
:102DB00013070040B65026542320F90098C0065946
:102DC00096540145656182803000EF00A072E34DAA
:102DD00005FC3247BD67F98F7977BA9793B717002B
:102DE000C1BF814713070004F1B7DE25797122D4F2
:102DF00006D626D24AD04ECE898B2E8491CF930709
:102E000074041CC01CC885475CC8B250225492543C
:102E10000259F2494561828074003000AA84EFF0C3
:102E20003FF7A2492A892685CE85912A19E9831779
:102E3000C40013F7072071FBF19B93E727005EA402
:102E40007DBF970700009387A7D49CD45E2408C059
:102E500008C893E707085EA4B247232A340181CF4C
:102E60008315E4002685EF00E06B11C55E24F19B1D
:102E700093E717005EA45E2433E527014AA471B7E7
:102E8000D5C183A7C5FF011122CC06CE1384C5FF8F
:102E900063D307003E942AC6EF00407017D7FF1F88
:102EA000130707291C43324589EB2322040000C382
:102EB0006244F24005616F00206F637DF4001040B2
:102EC000B306C4006396D7009443DC43B29614C0A3
:102ED0005CC0F1BF3E87DC4399C3E37DF4FE14433D
:102EE0003306D700631F86001040B29614C3330622
:102EF000D700E39FC7FA9043DC43B29614C35CC388
:102F000045BF6375C400B1471CC15DB71040B3062F
:102F1000C4006396D7009443DC43B29614C05CC0EF
:102F200040C379B7828041114AC017D9FF1F1309E6
:102F3000E91F8327090022C426C206C6AA842E845C
:102F400089E7814595292320A900A2852685AD2101
:102F50007D59631A25017D54B24022852244924452
:102F6000024941018280130435007198E30685FE11
:102F7000B305A44026858921E31025FFE9BF01118F
:102F800026CA93843500F1984AC806CE22CC4EC694
:102F9000A104B1472A8963F7F406B14463E6B40695
:102FA0004A85ED2B97D9FF1F9389891883A70900BC
:102FB0003E8435E4A6854A85EFF0FFF6FD572A8466
:102FC0006315F50C03A40900A287DDE7832904003B
:102FD00081454A85A299CD266393A90A1C408D0498
:102FE0009D8CF198A104B14763F3F400B144A68528
:102FF0004A85EFF05FF3FD576303F5081C40A69781
:103000001CC03DA8E3DC04F8B1472320F9000145CA
:10301000F2406244D2444249B24905618280144080
:10302000858E63C806042D47637DD70204C033072D
:1030300094006396870223A0E9005C4014C35CC33C
:103040004A859D231305B400930744006199330713
:10305000F540E30FF5FA3A94898F1CC055BFD8C3E9
:10306000E9BF58406395870023A0E900D1BFD8C3CA
:10307000C1BFA287404035BF3E84DC43B9B7B147EA
:103080002320F9004A850D2359B704C155BF1C46BA
:10309000FD171CC663DA0700184E63C5E700A94791
:1030A0006394F5006FF0EFF11C422E851387170033
:1030B00018C28CA38280011122CC26CA4AC84EC6EF
:1030C00052C406CE2A89AE893284B304D6007D5A12
:1030D00063149400014509A80C204E864A85EFF040
:1030E0001FFB0504E31645FFF2406244D244424907
:1030F000B249224A05618280357122CD26CB4AC968
:103100004EC706CF52C556C35AC1DEDEE2DCE6DA50
:10311000AA892E843289B68409C51C4D99E3EFF043
:103120007FAE971700009387A7A46319F40403A444
:1031300049007C50858B81EB5E2493F7072081E763
:10314000284CEFF0BFC45E24A18B99C31C48ADE3AB
:10315000A2854E85EFF0AFF221CD7C50858BA9C3BF
:103160007D55FA406A44DA444A49BA492A4A9A4A99
:103170000A4BF65B665CD65C0D6182809717000097
:103180009387079D6315F40003A489005DB7971723
:1031900000009387E799E31EF4F803A4C90051BF28
:1031A0005E2493F70720CDFF284CEFF05FBE4DBFA4
:1031B00093070002A304F1029307000302D2230540
:1031C000F10226C6930B5002971A0000938A4A9C7C
:1031D000054C294BCA849C2099C3639A7709B38C08
:1031E0002441638E2401E6864A86A2854E85EFF04F
:1031F0009FECFD576307F5189257E6973ED29C2047
:1032000063810718FD571389140002C802CE3ECA15
:1032100002CCA309010482D48345090015465685D2
:103220009526C2479304190029E513F7070109C73A
:1032300013070002A309E10413F7870009C7130766
:10324000B002A309E104834609001307A002638AC0
:10325000E602F247CA8481462546982093851400E9
:10326000130707FD6373E6068DC63ECE1DA08504D9
:103270009DB7330555413315AC00C98F3EC826892B
:1032800061BF324793064700184336C663480702BA
:103290003ACE98209307E002631CF7049830930716
:1032A000A002631AF702B2478904138747009C43C0
:1032B0003AC663D30700FD573ECA1DA83307E04056
:1032C00093E727003ACE3EC8E9B7B3876703AE84D9
:1032D0008546BA9759B7850402CA81468147254673
:1032E000982093851400130707FD6372E606E9F63C
:1032F0008C200D46171500001305058A612411CD99
:1033000097170000938747891D8DC2471307000454
:103310003317A700D98F85043EC88C20194617158E
:1033200000001305A587138914002304B102992C0A
:1033300035C99307000095E74247B2471377071056
:1033400009CF91073EC69257D2973ED261B5B38757
:103350006703AE848546BA9761B79D07E19BA107D5
:10336000D5B7780097060000938626D522860C08EC
:103370004E8597000000E7000000FD572A8AE314FD
:10338000F5FC7C50858B81EB5E2493F7072081E769
:10339000284CEFF0DF9F5E2493F70704E39207DCED
:1033A0001255C1B3780097060000938606D1228695
:1033B0000C084E85012ED1B7411122C42A842E85D6
:1033C00097D7FF1F23A807D606C6EFE0DF9FFD575C
:1033D0006318F50097D7FF1F83A7C7D591C31CC0FB
:1033E000B240224441018280411122C42E8483953F
:1033F000E50006C6B123634905007C48AA977CC84E
:10340000B2402244410182805E247D777D17F98F8E
:103410005EA4FDB7DE25011122CC26CA4AC84EC6DD
:1034200006CE93F70710AA842E843289B68991C7F5
:103430008395E50089460146292A5E247D777D171C
:10344000F98F8315E4005EA46244F240CE864A867A
:10345000B24942492685D244056125A8411122C4BA
:103460002E848395E50006C6ED207D575E24631A01
:10347000E5007D777D17F98F5EA4B24022444101BB
:1034800082800567D98F5EA468C8C5BF8395E500B3
:103490001DA8411122C42A842E85B285368697D76D
:1034A000FF1F23A907C806C6EFE0BF8DFD576318AD
:1034B000F50097D7FF1F83A7E7C791C31CC0B24091
:1034C000224441018280411122C42A842E8597D74B
:1034D000FF1F23A107C606C66929FD576318F5001B
:1034E00097D7FF1F83A707C591C31CC0B2402244D2
:1034F00041018280411122C42A842E85B28597D74A
:10350000FF1F23A907C206C6AD29FD576318F500A2
:1035100097D7FF1F83A707C291C31CC0B2402244A4
:1035200041018280411122C42A842E8597D7FF1F32
:1035300023A207C006C6B129FD576318F50097D727
:10354000FF1F83A727BF91C31CC0B2402244410183
:103550008280411122C42A842E85B285368697D76F
:10356000FF1F23A907BC06C62D29FD576318F500C8
:1035700097D7FF1F83A707BC91C31CC0B24022444A
:103580004101828093F5F50F2A966314C500014529
:1035900082801C21E38EB7FE0505C5BF17D5FF1F2E
:1035A000130505B86FF08FFE17D5FF1F130545B73C
:1035B0006FF0EFFD797156CA9C49BA8A984522D4BA
:1035C0004AD04ECE52CC06D626D25AC85EC6AA895A
:1035D0002E843289368A63D3E700BA872320F90024
:1035E0000347340401C785072320F9001C4093F7E3
:1035F000070291C78327090089072320F9000440A7
:10360000998891E8130B9401FD5B5C440327090042
:10361000998F63CCF40483473404B336F0001C4024
:1036200093F70702A5EB13063404D2854E85829AE0
:10363000FD576303F5041C4011478144998B63993E
:10364000E7004444832709009D8C63D30400814430
:103650001C4418486354F700998FBE9401496904CB
:103660007D5B63982405014509A885465A86D28565
:103670004E85829A631E75017D55B2502254925434
:103680000259F249624AD24A424BB24B45618280AA
:103690008504A5BF3307D40013060003A301C704A4
:1036A0000347540493871600A2978906A381E70471
:1036B0009DBF85462286D2854E85829AE30E65FBA4
:1036C000050945B7797122D44AD04ECE52CC06D6E0
:1036D00026D256CA5AC803C88501930780072A898B
:1036E0002E84B289368A63E2070393072006938605
:1036F000350463E10703630C081C93078005170674
:1037000000001306264A6308F814930424042301D6
:10371000040515A89307D8F993F7F70F5546E36604
:10372000F6FE170600001306664A8A07B2979C4306
:10373000B29782871C4393842504938647009C4359
:1037400014C32381F50485476DA290411C43137572
:1037500006089385470029C19C430CC3584063DF8A
:1037600007129305D002A301B40418C4635E0702D4
:10377000B307F040170600001306C6422948B68476
:1037800033F70703FD143297182398A03E87B3D769
:103790000703E37707FF85A09C43137506040CC35A
:1037A00055DDC207C1875DBF6D9A10C0D1B790418A
:1037B0001C43137506089385470001C50CC39C4341
:1037C00031A0137606040CC37DDA9E231307F0069E
:1037D000170600001306063D6310E80C2148A301FC
:1037E0000404584018C4E34C07F80C40ED990CC091
:1037F000D9F7B68449F7A147631EF8001C40858BB2
:1038000091CB58401C4863C7E70093070003A38F80
:10381000F4FEFD14858E14C85287CE867000A285F2
:103820004A85EFF03FD9FD5A6319550D7D55B250C9
:10383000225492540259F249624AD24A424B45619B
:1038400082809C4193E707029CC1130880071706FA
:10385000000013066636A30204050C401C4313F84F
:103860000508138547006305080008C39C4339A079
:1038700013F8050408C3E30B08FE9E2313F7150095
:1038800001C793E505020CC099C3414889BF1840A0
:103890001377F7FD18C0D5BF294891B71706000068
:1038A00013064630294835BF90411C43CC49137854
:1038B0000608138547006306080008C39C438CC3B1
:1038C00039A008C3137606049C4375DA8EA3232817
:1038D0000400B68491B71C43D041814593864700CC
:1038E00014C384432685EFF0FFC919C1058D48C074
:1038F0005C401CC8A301040405B714482686CE8585
:103900004A85029AE30455F31C40898B8DE7B24740
:103910004844E35EF5F03E8519BF85465686CE8560
:103920004A85029AE30465F185045C443247998F25
:10393000E3C5F4FEE9BF8144930A94017D5BF5B7CA
:10394000411122C42A842E85B285368697C7FF1F6F
:1039500023A2077E06C6B128FD576318F50097C756
:10396000FF1F83A7277D91C31CC0B24022444101A1
:1039700082809307800517C7FF1F232DF77A7D5597
:1039800082809307800517C7FF1F2325F77A7D558F
:1039900082809307800517C7FF1F232DF778014505
:1039A00082809307800517C7FF1F2325F7787D5571
:1039B00082809307800517C7FF1F232DF7767D555B
:1039C000828000005352432F4672656552544F5314
:1039D0002F686561705F342E63000000657272208D
:1039E0006174206C696E65202564206F66206669AD
:1039F0006C6520222573222E200D0A200000000075
:103A00005352432F4672656552544F532F706F7255
:103A1000742E63005352432F4672656552544F53C0
:103A20002F71756575652E63000000005352432F9A
:103A30004672656552544F532F7461736B732E63D6
:103A40000000000049444C45000000005352432F41
:103A50004672656552544F532F74696D6572732EAB
:103A600063000000501B00009E1B00009E1B000016
:103A7000DE1B0000EA1B0000281C00009E1B00004B
:103A80009E1B0000DE1B0000EA1B0000546D7251FB
:103A900000000000546D7220537663007461736BF4
:103AA0003120656E7472790D000000007461736BD3
:103AB0003220656E7472790D0000000053797374C2
:103AC000656D436C6B3A25640D0A000043686970AC
:103AD00049443A253038780D0A0000005631302E1E
:103AE000342E36004672656552544F53204B657232
:103AF0006E656C2056657273696F6E3A25730D0A98
:103B0000000000007461736B320000007461736B1D
:103B10003100000073686F756C646E2774207275D5
:103B20006E2061742068657265212100000000002C
:103B30000000000000000000000000000000000085
:103B40000000000000000000000000000000000075
:103B50000000000000000000000000000000000065
:103B60000000000000000000000000000000000055
:103B70000000000000000000000000000000000045
:103B8000000000000000000000000000232D302B8A
:103B900020000000686C4C006566674546470000E1
:103BA0003031323334353637383941424344454673
:103BB0000000000030313233343536373839616235
:103BC00063646566000000006CFBFFFF82FBFFFF83
:103BD00042FBFFFF42FBFFFF42FBFFFF42FBFFFFF9
:103BE00082FBFFFF42FBFFFF42FBFFFF42FBFFFFA9
:103BF00042FBFFFFE0FCFFFFE6FBFFFF7AFCFFFF5D
:103C000042FBFFFF42FBFFFF0EFDFFFF42FBFFFFFA
:103C1000E6FBFFFF42FBFFFF42FBFFFF82FCFFFFD3
:103C2000000000000000000001020304060708096C
:103C30000000000001020304010203040607080952
:103C4000000000006C3B00004C3B00002C3B0000DF
:103C50000000000000000000000000000000000064
:103C60000000000000000000000000000000000054
:103C70000000000000000000000000000000000044
:103C80000000000000000000000000000000000034
:103C90000000000000000000000000000000000024
:103CA000AAAAAAAA0E0000002C33002000449508FE
:103CB00002040608200000200080002020000020D0
:00000001FF
