:100000006F200043130000001300000013000000E5
:100010001300000013000000130000001300000094
:100020001300000013000000130000001300000084
:08003000130000007300100032
:100038000000000000000000281B00002A1B000030
:10004800000000007623000000000000000000000F
:10005800782300007A230000000000000000000060
:10006800EE08000000000000000200000000000090
:1000780080230000822300008423000086230000E0
:10008800882300008A2300008C2300008E230000B0
:100098009023000092230000942300009623000080
:1000A800982300009A2300009C2300009E23000050
:1000B800A0230000A2230000A4230000A623000020
:1000C800A8230000AA230000AC230000AE230000F0
:1000D800B0230000B2230000B4230000B6230000C0
:1000E800B8230000BA230000BC230000BE23000090
:1000F800C0230000C2230000C4230000C623000060
:10010800C8230000CA230000CC230000CE2300002F
:10011800D0230000D2230000D4230000D6230000FF
:10012800D8230000DA230000DC230000DE230000CF
:10013800E0230000E2230000E4230000E62300009F
:10014800E8230000EA230000EC230000EE2300006F
:10015800F0230000F2230000F4230000F62300003F
:10016800F8230000FA230000FC230000FE2300000F
:1001780000240000022400000424000006240000DB
:10018800082400000A2400000C2400000E240000AB
:10019800102400001224000014240000162400007B
:1001A800182400001A2400001C2400001E2400004B
:1001B800202400002224000024240000262400001B
:1001C800282400002A2400002C2400002E240000EB
:1001D8000000000000000000000000000000000017
:1001E8000000000000000000000000000000000007
:0801F8000000000000000000FF
:10020000130181F806C216C41AC61EC822CA26CC1B
:100210002ACE2ED032D236D43AD63ED842DA46DC76
:100220004ADECEC0D2C2D6C4DAC6DEC8E2CAE6CC46
:10023000EACEEED0F2D2F6D4FAD6FED8F3220030CF
:1002400096DA83A2418723A02200F32510342EC022
:100250009305000273A0458003A18181EF10402423
:1002600003A3418703210300824273901234D652C4
:10027000739002309240A2423243C2435244E2445D
:10028000724582551256A2563257C2575258E258FA
:1002900072598649164AA64A364BC64B564CE64C0E
:1002A000764D865D165EA65E365FC65F13018107DA
:1002B0007300203013000000130000001300000042
:1002C00013000000130000001300000013000000E2
:1002D00013000000130000001300000013000000D2
:1002E00013000000130000001300000013000000C2
:1002F00013000000130000001300000013000000B2
:1003000083A28181938202E07390023403A141872A
:10031000024182403243C2435244E2447245825514
:100320001256A2563257C2575258E258725986494D
:10033000164AA64A364BC64B564CE64C764D865D61
:10034000165EA65E365FC65FD652A102739002307B
:10035000A2421301810782801300000013000000F5
:100360001300000013000000130000001300000041
:100370001300000013000000130000001300000031
:100380001300000013000000130000001300000021
:100390001300000013000000130000001300000011
:1003A0001300000013000000130000001300000001
:1003B00013000000130000001300000013000000F1
:1003C00013000000130000001300000013000000E1
:1003D00013000000130000001300000013000000D1
:1003E00013000000130000001300000013000000C1
:1003F00013000000130000001300000013000000B1
:10040000F322003093F272FF130380781203B3E2F9
:100410006200711523205500130585FA10C12115BE
:100420002320050081426387020071152320050007
:10043000FD12D5BF71150CC18280000000000000C4
:1004400000000000000000000000000000000000AC
:10045000000000000000000000000000000000009C
:10046000000000000000000000000000000000008C
:10047000000000000000000000000000000000007C
:10048000000000000000000000000000000000006C
:10049000000000000000000000000000000000005C
:1004A000000000000000000000000000000000004C
:1004B000000000000000000000000000000000003C
:1004C000000000000000000000000000000000002C
:1004D000000000000000000000000000000000001C
:1004E000000000000000397101436EC619A0397187
:1004F00041536AC866CA62CC5ECE19A039710153F5
:100500005AD056D252D44ED64AD826DA22DC06DE4B
:1005100033016140828241114AC026C222C406C60C
:100520008282B24D4101024D924C224CB24B4101AC
:10053000024B924A224AB249410102499244224462
:10054000B240410182802A8311C62300B3007D1688
:10055000050365FE82802A8309CA83830500230080
:1005600073007D16050385056DFA8280370700202C
:10057000130787129377F700B9C39306F700C19A60
:100580008D67958FBA9736879386418398C223A249
:100590000600BA97C117C19B23A8F18223A20700C6
:1005A00023A00700B386E74054C31CC323A4D18211
:1005B00023A6D1823707008023AEE18082808D6739
:1005C000E1B7938741833E879C43E3EEA7FE544304
:1005D0003306D700630CA60054413306D500638C64
:1005E000C7001CC16303E50008C382805041B29676
:1005F00054C33A85D5B703A601836389C700DC439A
:10060000BE9654C11C439C431CC1E9BF10C1D9BF55
:10061000EFF27FF02A84EF00503583A7018395CF56
:1006200083A7C181E18FE9E39307F4FF3957636F33
:10063000F70A130704013D8819C4937707FFC10720
:10064000637EF70A3E874DCF83A7C18263ECE70A3A
:1006500003A441839386418329A0093FD1B7A28691
:100660003E845C4063F4E7001C40F5FB83A70183F4
:10067000638C87088442C1041C409CC25C40998FF3
:100680009306000263FAF6023305E4009376F50060
:100690008DC2A16793870780739007300D6613069C
:1006A000066A9305F00C0D651305856BEF1010615C
:1006B00001A05CC158C03137584083A7C182998FCF
:1006C00023A6F18283A6818263F4D70023A4F1825A
:1006D00083A7C181D98F5CC02320040083A74182F6
:1006E000850723A2F18221A0814411A08144EF005B
:1006F000B04093F7F40099EB268581B58144C5BFDE
:100700008144F5B78144E5B78144D5B7A1679387A4
:100710000780739007300D661306066A9305001173
:100720000D651305856BEF10705901A041C9EFF2FB
:100730009FDE2A84930405FF832745FF03A7C18119
:10074000B3F6E70085C6832605FFA9C2A167938794
:100750000780739007300D661306066A93055012E2
:100760000D651305856BEF10705501A0A167938788
:100770000780739007300D661306066A93054012D2
:100780000D651305856BEF10705301A01347F7FF3C
:10079000F98F232AF5FEEF00501D832644FF83A71F
:1007A000C182B69723A6F1822685213D83A70182C7
:1007B000850723A0F182EF00303441B38280930794
:1007C00085005CC17D5718C55CC51CC92320050088
:1007D00082802328050082809041FD576303F60242
:1007E00093078500BE86DC439843E37DE6FEDC424A
:1007F000DCC18CC794C5CCC288C91C4185071CC10B
:1008000082801449EDB71C495441184598C654419B
:1008100054C3D8436309A7002328050098437D17D4
:1008200098C3884382801845D8C3FDB7B7E700E076
:1008300041572387E7402386E740B7F700E023A02E
:10084000070023A207008146014794C7D8C783A5A4
:10085000C1801307803E33D6E502814690CBD4CBCE
:100860003D4798C38280EFF21FCB411102C6F327A8
:1008700050303EC6B2478D8B0D476398E702B7876D
:10088000002093870700BD8BA9C3A16793870780CA
:10089000739007300D661306C66D9305B00B0D659A
:1008A0001305856BEF10904101A0A1679387078026
:1008B000739007300D661306C66D9305600B0D65CA
:1008C0001305856BEF10903F01A08D37B7E700E06F
:1008D000056723A0E710116723A0E710B7070020E2
:1008E00023AC0706EFF0DFA101454101B9B1EFF2FA
:1008F0009FC273110134A1679387078073900730FB
:10090000B7F700E023A20700EF00500711C5B7E7D3
:1009100000E0116723A0E720A16793878788739081
:1009200007307311013411B9A16793870780739061
:10093000073037070020832787078507232CF70612
:100940008280B707002083A7870789CFFD17370765
:100950000020232CF70691E7A1679387878873907F
:1009600007308280EFF23FBBA167938707807390C7
:1009700007300D661306C66D930520100D6513052F
:10098000856BEF10B03301A0EFF2FFB82A84693F06
:100990001C5C89E705447537228545B60144E5BFEF
:1009A000AA87304101CE2E85D8473297D8C79447C1
:1009B0006364D7009843D8C7CC4771BE8280EFF2FA
:1009C0009FB5AA84953703C454046204618421A0AE
:1009D0007D1462046184635C8000DC5089CB1385E4
:1009E0004402EF00D0406DD5EF00B05CD5B7FD57A5
:1009F000A382F404B9370D3F03C444046204618444
:100A000021A07D1462046184635C80009C4889CBD2
:100A100013850401EF00B03D6DD5EF009059D5B7B7
:100A2000FD572382F404313F09BEEFF2DFAE1DC94A
:100A30002A84AE845C5D99C734410147B3B7D702BD
:100A4000B1E339C3A16793870780739007300D66C0
:100A50001306066F930550140D651305856BEF1093
:100A6000F02501A0A16793870780739007300D667A
:100A70001306066F930500110D651305856BEF10C6
:100A8000F02301A0054775BF45351C40545C384034
:100A90003386E6023E9610C4232C04025CC0FD1689
:100AA0003307D702BA975CC4FD572302F404A302AC
:100AB000F4048DE01C4881E769350545BDBC13058C
:100AC0000401EF00D0326DD9B7E700E0116723A031
:100AD000E720DDB713050401DD3113054402C531FC
:100AE000E1BFAA873A8591E518C15CDD2CC1854537
:100AF0002DBF10C3DDBFEFF27FA019CD2A84AE84D5
:100B0000328981473337B50205EB99E73305940203
:100B1000930770FB63F4A702A16793870780739024
:100B200007300D661306066F9305601C0D651305EF
:100B3000856BEF10B01801A08547C1BF1305850470
:100B4000C13CAA8901C92A87CA8613068504A685DD
:100B50002285413F4E856FF0BF9DEFF23F9A011114
:100B600032C61DC92A84AE89A1C9EF0010452A8961
:100B700035E5B2476387070CA167938707807390B9
:100B800007300D661306066F9305A0550D65130516
:100B9000856BEF10B01201A0A16793870780739057
:100BA00007300D661306066F930510550D65130586
:100BB000856BEF10B01001A03C41C5DBA1679387A6
:100BC0000780739007300D661306066F9305505526
:100BD0000D651305856BEF10700E01A0014995A0FE
:100BE000CE852285753BFD1404DC1C4891E7913BC2
:100BF000054505616FF0DF9313050401EF00301F19
:100C00007DD5B7E700E0116723A0E720CDB7153BFE
:100C10000145C5B72808EF00702D054915A8230226
:100C2000040489A0A3020404A9A02285493BEF0083
:100C3000A06C01A822856133EF00006C2285A933E6
:100C400035E1DD31045CC9FCB247F1D3E30409FCB2
:100C5000CD39212BD13983474404E207E1877D5701
:100C6000E38FE7FA83475404E207E1877D57E38B7C
:100C7000E7FAC1396C002808EF00302845FD2285CD
:100C8000213345D5B24513054402EF00900B228570
:100C90003D33EF00606655F5B7E700E0116723A02C
:100CA000E72045B70145B1B709C59DC501460147D4
:100CB00025A8EFF25F86A1679387078073900730BE
:100CC0000D661306066F8565938585AC0D65130566
:100CD000856BEF10A07E01A08280373600201306BE
:100CE0008612369689A005079D4763EDE702B73760
:100CF00000209316370093878712B697DC43E38E64
:100D0000A7FC75F2B7370020931637009387871238
:100D1000B6979C43E9FBB737002093878712338649
:100D2000F600D1B719C20CC248C28280EFF2AFFE02
:100D30002A84AE843289CD3E83474404E207E187AA
:100D40007D576380E70283475404E207E1877D57BC
:100D5000638CE700FD361C5C99CB22858D316FF0EA
:100D6000CFFD23020404C5B7A3020404E5B74A86F5
:100D7000A68513054402EF00D000C5B783A70187FD
:100D80009C4389E77D5723A2E184828083A7018762
:100D9000DC47984323A2E1848280EFF2CFF72A84D4
:100DA0000859EFF0BF982285EFF05F986FF0EFF8E9
:100DB000EFF2CFF4AA89368ABA843E894284832727
:100DC0000803370700407D173A960A06B29793FA50
:100DD00007FFB1C581483D48636E1801338815018E
:100DE0000303080033081401230A680263040300A4
:100DF0008508D5B7A3010404B94763F59702A16735
:100E000093870780739007300D66130686709305ED
:100E100070390D651305856BEF10406A01A0230A38
:100E20000802D9BF44D464C0232404041305440039
:100E3000EFF03F9A13058401EFF0BF9900C8BD475A
:100E4000858F1CCC40D023060404A306040423078A
:100E50000404A307040423080404A308040452861A
:100E6000CE855685EFF0CFD908C063040900232052
:100E700089006FF0EFEBEFF20FEA014431A893170E
:100E80002400A29713952700B73700209387C71C2B
:100E90003E95EFF0DF920504B947E3F287FEB734E1
:100EA00000201385841BEFF09F9137340020130539
:100EB000441AEFF0DF903735002013050519EFF0E5
:100EC0001F90373500201305C517EFF05F8F3735BA
:100ED000002013058516EFF09F8E9384841B23A8B2
:100EE00091861304441A23A681866FF00FE5EFF272
:100EF0008FE22A84EFF05FA383A74186850723A2B0
:100F0000F18683A7418789CF83A781858DE383A756
:100F10004187D8575C5463ECE70023AA818601A877
:100F200023AA818603A741868547630FF70683A717
:100F30008184850723A4F184545483A7C18563F475
:100F4000D70023AED184B73700209387C71C1397EF
:100F5000260036970A073E97584318C4104750C4D6
:100F60009306440054C214C7505413172600B30606
:100F7000C7008A06BE9654C89442850632970A076F
:100F8000BA9794C3EFF0FF9B83A7818581CF83A796
:100F90004187D8575C546377F700B7E700E01167E3
:100FA00023A0E7206FF06FD9F93551B783A7818669
:100FB000B1C3EFF24FD6EFF03F97B73700209387DA
:100FC000C717DC47C04713054400EFF0DF8383A752
:100FD0004186FD1723A2F18683A78186FD1723A4EE
:100FE000F186EFF01F9622854D3B83A78186E1F7BE
:100FF0006FF0AFD48280EFF20FD24D3FFDBFEFF222
:101000008FD12A84AE8403A9018603A74187A30850
:10101000070403A541871105EFF0EFFEFD576301BB
:10102000F4024A9483A74187C0C36377240503A5CC
:10103000C18683A541879105EFF00FFA6FF0EFCFDE
:10104000EDD0B737002093878716D44303A6418796
:1010500014C603A641878C464CC603A641871106D9
:10106000D0C103A64187110690C603A741875CCB78
:101070009843050798C3D9B703A5018783A541877E
:101080009105EFF06FF583A74184E379F4FA23A289
:1010900081846DB7EFF2AFC52A89AE89B284368AF2
:1010A000BA8A3E8B13152600EFF08FD61DC92A840D
:1010B00013054005EFF0CFD5AA8B19CD00D9814893
:1010C0002A88DA875687D2862686CE854A85CD310C
:1010D0005E85313D054539A02285EFF02FE57D5530
:1010E00011A07D556FF02FC4EFF2EFC293870184FA
:1010F00001478146130600108D65938505720565CD
:10110000130565FF413F8547630BF500FD57630DF0
:10111000F502B707002083A7C7076FF00FC2EF00E3
:10112000D01B8547E314F5FEA16793870780739072
:1011300007307D5723A2E184054723ACE18423A037
:101140000186EFF04FF2F1B7A167938707807390A4
:1011500007300D66130686708565938505840D65D9
:101160001305856BEF10803501A083A7C183850728
:1011700023AEF182828003A50186828083A7C1838A
:1011800063930716EFF22FB903A40186050423A089
:10119000818629E483A701879C4395C3A167938730
:1011A0000780739007300D661306867085659385FA
:1011B00075AC0D651305856BEF10403001A083A65B
:1011C000018703A6C18623A8C18623A6D18683A74B
:1011D000C184850723A6F184EFF05FBA83A7418419
:1011E000637BF402014583A74187D457B7370020BA
:1011F000139726003697931627009387C71CB69738
:101200009843854763F3E700054583A7018563930A
:10121000070E6FF08FB20145ADA87D5723A2E18480
:10122000D9B723A2E184C1B7D44754C349A823A4A2
:1012300007021443FD1614C3D45703A7C185637472
:10124000D70023AED184373700201307C71C13966D
:101250002600369693162600BA96D44294C7904636
:10126000D0C74CC28CC6CC57939625003388B600A5
:10127000131628003A96D0CB104205069315280085
:101280002E9710C3D85783A74187DC576363F700B5
:10129000054583A701879C43C9D383A70187DC4702
:1012A000DC47D843E36FE4F6D84B9047D44714C6E5
:1012B0009047D0C2544393854700E387B6F623AAEC
:1012C00007001443FD1614C398573DD7D04F9453CD
:1012D00014C6D04FD0C2504393868701E319D6F489
:1012E000945354C3A9B783A74185850723AAF184E2
:1012F00001458280054531BFEFF2EFA183A7C1838D
:1013000095E3A16793870780739007300D661306F6
:10131000867085659385358B0D651305856BEF109C
:10132000E01901A0EFF04FE003A7C1837D1723AEC2
:10133000E18283A7C1836393071083A7418689EB6A
:101340000144F5A8945354C31DA8D44754C381A89D
:10135000814737370020032707194DC7B7370020CB
:1013600093870719DC47DC479857D04F945314C62E
:10137000D04FD0C2504393868701E305D6FC23A407
:1013800007021443FD1614C3D84B9047D44714C624
:101390009047D0C2544393854700E388B6FA23AA06
:1013A00007001443FD1614C3D05703A7C185637407
:1013B000C70023AEC184373700201307C71C93161C
:1013C0002600B2968A06BA96D44294C79046D0C7F1
:1013D0004CC28CC6CC57939625003386B6000A06BD
:1013E0003A96D0CB10420506AE968A06369710C3C1
:1013F000D45703A741875857E3EDE6F4854623A861
:10140000D18481BF99C3EFF07F9703A4418509EC94
:1014100003A401850DC4B7E700E0116723A0E7200E
:10142000054431A87D1401C8EFF05FD565DD05479F
:1014300023A8E184C5BF23AA0184D9BF0144EFF0EA
:101440004FD022856FF06F8F31C5EFF2CF8C2A8499
:1014500083A7C1838DC3A1679387078073900730EB
:101460000D6613068670930590540D651305856B04
:10147000EF10C00401A0EFF05FCF81452285EFF0AF
:101480001FB89D3D11E5B7E700E0116723A0E720F5
:101490006FF0AF8AB7E700E0116723A0E7208280F2
:1014A00083A7C18389C7054723A8E184828023A835
:1014B000018403A7C185B737002093162700BA9689
:1014C000139626009387C71CB2979C439DE719C3C8
:1014D0007D17D5B7EFF22F84A167938707807390AC
:1014E00007300D66130686708565938525C00D65EA
:1014F0001305856BEF00907C01A0B7370020938720
:10150000C71CB297D443D442D4C3A1076383F60265
:10151000B737002093162700BA96139626009387B4
:10152000C71CB297DC43D44723AAD18623AEE184FB
:101530008280CC42B73700209387C71CB297CCC3B8
:10154000C1BFEFE25FFD09CD2E8483A54187E10590
:10155000EFF08FA885452285EFF07FAA6FE0FFFDB1
:10156000A16793870780739007300D661306867016
:1015700085659385C5C10D651305856BEF001074F6
:1015800001A0EFE25FF9AA8731C12E85B285D4436D
:1015900003A6418754CE03A6418703A886002320D3
:1015A000060303A6418761062322C80003A64187DC
:1015B000610690C603A741871CD79843050798C3C7
:1015C00091C17D55EFF0BFA36FE03FF7A16793870F
:1015D0000780739007300D661306867085659385C6
:1015E00025C50D651305856BEF00506D01A05C45A9
:1015F000DC47DDC39857D04F945314C6D04FD0C2A8
:10160000544313868701638CC60A23A4070214433C
:10161000FD1614C303A7C1834DEBD84B9047D447A5
:1016200014C69047D0C2544393854700638CB608D4
:1016300023AA07001443FD1614C3D05703A7C1857E
:101640006374C70023AEC184373700201307C71C5B
:1016500093162600B2968A06BA96D44294C790464C
:10166000D0C74CC28CC6CC57939625003386B600A3
:101670000A063A96D0CB10420506AE968A063697F1
:1016800010C3D85783A74187DC5763FFE70405479A
:1016900023A8E18405458280EFE2FFE7A1679387F5
:1016A0000780739007300D661306867085659385F5
:1016B00025C80D651305856BEF00506001A094539C
:1016C00054C3A1B7D44754C3A5B737370020130775
:1016D00007195443D4CF8C468CD3D0C190C698D729
:1016E0001443850614C371BF0145828083A7C1845A
:1016F0001CC183A701865CC18280EFE2DFE115C9CE
:101700002A84AE84A1C9EFF02FA203A701865C4012
:101710003306F74083A6418783C61605A9CE83A763
:101720004187A38807040544EFF0AFA122856FE04D
:10173000DFE0A16793870780739007300D6613067B
:10174000867085659385D5CF0D651305856BEF0094
:10175000F05601A0A16793870780739007300D664C
:101760001306867085659385E5CF0D651305856B3A
:10177000EF00D05401A09440FD55638AB6020840A2
:1017800083A5C1846308B5006366F70023A0040045
:10179000054459BF6366D60023A00400054469B719
:1017A000998FB6979CC0228591370144B5BF0144FB
:1017B000A5BF054723A8E184828083A7818581CBCB
:1017C00083A7C18399C3014582800945828005456D
:1017D000828003A781881C4399E785471CC191E754
:1017E0005C47884382808147D5BF01458280EFE214
:1017F0009FD24CC108C96361B602158E1C4D63654A
:10180000F60005456FE07FD39305450003A54188A9
:10181000EFE09FFC0145FDB76374D60063FAD50085
:101820009305450003A58188EFE01FFB0145D9BF63
:101830000545C9BFEFE23FCE2A84AE84328931A08C
:101840001C4CBE941C50228582970C4CA6864A865E
:10185000A6952285693F6DF56FE03FCEEFE2BFCBE5
:10186000AA842E8983A78188DC47C04713054400DA
:10187000EFE07FF98347440213F7470009EBF99B38
:101880002302F4021C50228582976FE01FCB4A8608
:10189000A68522854537FDB783A7818898431DC358
:1018A000EFE27FC7DC47FD5588434D3F83A7818822
:1018B00098436DFB03A6418823A4C18823A2F18825
:1018C0006FE0BFC703A6418823A4C18823A2F18883
:1018D0008280EFE25FC4AA84EFF0FF892A8483A7A5
:1018E00081876369F50023A0040023AC81862285EB
:1018F0006FE0BFC4553785479CC0C5BFEFE2BFC18D
:1019000041112A892E84EFF05F866800D937B247EB
:10191000B9E3AA840DE8637225032286B3059940D2
:1019200003A50188EFF08FC0EFF01F9D1DE5B7E71D
:1019300000E0116723A0E7200DA0EFF0FF9BA68534
:101940004A85293F19A803A74188184319E305448C
:10195000E9B73E84D9B7EFF03F9A41016FE0FFBD90
:10196000EFE27FBB011121A0C24763D2070201460B
:101970000C0803A50188EFF04F9E6304050EC247D3
:10198000E3D407FEF2456245D2478297F1BF624435
:101990005C4889C713054400EFE0FFE66800153F87
:1019A000AA84C2472547E364F7FC8A071167130737
:1019B000C781BA979C4382878347440293E7170005
:1019C0002302F402D2460C4C2A86B6952285EFF00B
:1019D0001FE251DD8347440213F7470001EBF99BF7
:1019E0002302F4021C502285829751B71C4C268694
:1019F000D245BE952285EFF0FFE3EDB78347440261
:101A0000F99B2302F402A5B78347440293E717002A
:101A10002302F402D2450CCC81C9AA862A86AA9553
:101A20002285EFF0DFDCA1B7A16793870780739071
:101A300007300D6613068672930590350D65130504
:101A4000856BEF00B02701A08347440213F72700FE
:101A500009C7F99B2302F40219BF2285EFE01FCDCD
:101A600039B705616FE07FADEFE2FFAA4111680071
:101A7000EFF03FD6B245EFF07FE8EFF07FEEC5BF65
:101A8000EFE27FA9EFE05FEA83A7018889C7EFE073
:101A90005FEB6FE09FAAB73400201385C430EFE0FE
:101AA0001FD2373400201305842FEFE05FD19384D9
:101AB000C43023A491881304842F23A28188014673
:101AC000C1451145EFF02F8323A0A18869D18D6511
:101AD00093850574EFF04F9D5DBFEFE2DFA34D37B7
:101AE00083A7018885C39387C18739478146130639
:101AF00000108D65938585740965130585A6EFF043
:101B00006FD90DE1A16793870780739007300D6649
:101B100013068672930590110D651305856BEF0012
:101B2000F01901A06FE07FA1828001A0EFE2BF9ECB
:101B300001112A84854511651105EF00206E930778
:101B40000020231AF1008D473ECCE1473ECE4C08E1
:101B50003715014013050580092922C2231401000D
:101B6000231501002316010023180100A1472317A4
:101B7000F1004C003744014013050480EF00E06B96
:101B8000854513050480EF00E07A05616FE0FF9A58
:101B9000EFE2DF962E84B289814405A89305000404
:101BA0003745014013050580EF00A07B65D9130977
:101BB000140083050400C205C181374501401305A7
:101BC0000580EF00607985044A84E3C934FD4E85C1
:101BD0006FE01F96AA8703A58180AA973737002058
:101BE0001307874563EBE70037870020130707805B
:101BF0006367F70023A4F18082807D5582807D5544
:101C00008280EFE25F910D6513050575EF00701A94
:101C1000A165371401401305048025211305A00F89
:101C2000EFF09F82A1651305048031291305A00FF1
:101C3000EFF09F81C9BFEFE21F8E0D65130505769A
:101C4000EF003017C14537140140130504C0E52EDD
:101C50001305401FEFF04FFFC145130504C0D52603
:101C60001305401FEFF04FFEC9BFEFE2DF8A4111BD
:101C700002C202C402C6854511454D23E1772312F5
:101C8000F100414422C60D494AC44C00B71401403A
:101C900013850480D92C85452145492323128100D1
:101CA00022C64AC44C00138504C0C12441016FE020
:101CB000DF88EFE25F860945492E492A71651305E1
:101CC0000520EFF0BFE683A5C1800D6513050577FC
:101CD000EF00C07E7124AA850D6513050578EF001D
:101CE000E07D8D65938505790D6513058579EF0098
:101CF000E07CEFF09FF79387C18815478146130674
:101D000000108D659385857B0965130565C3EFF02C
:101D10006FB89387018915478146130600108D65BA
:101D20009385057C0965130525C0EFF0AFB6EFF08C
:101D3000AFBB0D651305857CEF00B007DDBF41111A
:101D400002C602C4371702401C43C166D58F1CC3AC
:101D5000B71702409C4337070200F98F3EC4B247D1
:101D600085073EC6A24789E732478567E312F7FE3B
:101D7000B71702409C4337070200F98F89CB85478C
:101D80003EC4224785476306F7004101828002C4B2
:101D9000CDBFB7170240D843D8C3D843D8C3D84320
:101DA00013670740D8C3D843B706C1FFFD16758F28
:101DB000D8C3D843C166558FD8C39843B70600012E
:101DC000558F98C3B71702409C4337070002F98F1D
:101DD000F5DBB7170240D843719BD8C3D8431367CC
:101DE0002700D8C3B7170240DC43B18B2147E39BE0
:101DF000E7FE61BF6FF0BFF4B71702409843136767
:101E0000170098C3D843B706FFF8758FD8C3984317
:101E1000B706F7FEFD16758F98C39843B706FCFF0B
:101E2000FD16758F98C3D843B70681FFFD16758FD1
:101E3000D8C39843B70600ECFD16758F98C33707D3
:101E4000FF0098C723A607026FF0DFFAB71702401A
:101E5000DC43B18B11476386E7042147638AE704BB
:101E600081CBB7177A009387072023A6F18039A08A
:101E7000B7177A009387072023A6F180B71702408F
:101E8000D84311833D8BB707002093870700BA978B
:101E900083C6070083A7C180B3D7D70023A6F180EC
:101EA0008280B7177A009387072023A6F180F9B7BD
:101EB000371702405C435843C166758FC983BD8B99
:101EC000890789466382D704BD466381D704C1462A
:101ED0006381D704814645466380C70429EB3747B1
:101EE000024003270780418B15CB37177A00130771
:101EF0000720B387E70223A6F180C9D283A7C18058
:101F0000858323A6F1809DBFC947D1B78546B547D4
:101F1000D9B78146BD47D9B7C147C9B737173D00C3
:101F200013070790B387E70223A6F180F9B73717A5
:101F30000240584337060200718F11CB37173D001E
:101F400013070790B387E70223A6F1807DB7371701
:101F50007A0013070720B387E70223A6F18071BF39
:101F6000B7F7FF1F03A5477082809C4593F8F700E1
:101F7000C18B81C7DC41B3E8F80083C70500A1CF5E
:101F800003280500014719A05CC905079D4763E2C6
:101F9000E7048547B397E70083D60500FD8EE396F7
:101FA000D7FE13162700BD46B396C60093C6F6FFAC
:101FB00033F806013396C8003368060194451306CA
:101FC0008002E383C6FC13068004E390C6FC1CC9B0
:101FD0006DBF2320050103D705009307F00F63F1C0
:101FE000E70603284500014739A090459306800481
:101FF0006304D60405079D4763E2E7049306870060
:102000008547B397D70083D60500FD8EE394D7FEAE
:1020100013162700BD46B396C60093C6F6FF33F8E5
:1020200006013396C8003368060190459306800286
:10203000E31DD6FA5CC955BF1CC96DBF232205013B
:1020400082800CC982804CC9828023AAA1888280A8
:10205000B7170240DC43B18B11476381E708214782
:102060006384E70899C7B7177A00938707201CC1D4
:1020700031A0B7177A00938707201CC1371602409A
:102080005C429183BD8B3707002013070701BA9785
:1020900083C607001C41B3D7D7005CC15442A1825C
:1020A0009D8ABA9683C60600B3D6D70014C554429B
:1020B000AD829D8A369703470700B3D7E7005CC51A
:1020C000584239830D8B9386018136970347070069
:1020D0001377F70FB3D7E7021CC98280B7177A00CE
:1020E000938707201CC159BF371702405C435843F0
:1020F000C166758FC983BD8B8907B7F6FF1F83A69D
:10210000C6701166F18E85E6C5466386D7048146A2
:102110002DE33747024003270780418B39C3371728
:102120007A0013070720B387E7021CC161A889461C
:10213000638ED700BD46638DD700C1466380D7024A
:1021400081464546E396C7FCC147D9B7C947F5B7AD
:102150008546B547FDB78146C9475DBF8146BD4746
:1021600045BF37173D0013070790B387E7021CC12F
:1021700091A83717024058574166718F59C3B71558
:102180000240D05511823D8A050637177A001307A1
:1021900007203357C70218C1D05521823D8A0DEA66
:1021A000131627003297058318C1104137170240D4
:1021B00058573D8B05073357E60218C11841B3073E
:1021C000F7021CC1E38C06EA1C4185831CC17DB566
:1021D0008545630AB600BD45630FB600090633079F
:1021E000C70218C1D9B7131617003A960E063297D0
:1021F000058318C15DBF1316270032970A0718C15F
:102200006DB73717024050573D8A050637177A00D9
:10221000130707203357C70218C14DB799C53717A1
:1022200002401C4FC98F1CCF8280371702401C4FC1
:102230001345F5FFE98F1CCF8280EFE2CFAD01118E
:102240002A84AE840357050183D76500F576FD1611
:10225000758FD98F2318F5000357C50083D6450025
:1022600003D6850083D7A500D18ED58FFD769386C2
:10227000369F758FD98F2316F50083574501C20706
:10228000C18303D7C50093F7F7CFD98F231AF50081
:102290006800EFF0FFDBB7470140938707806305D5
:1022A000F40652478357C400C207C18763C00706BC
:1022B00093171700BA978E07BA9798400A07B3D7B3
:1022C000E7029305400633D7B70293164700370657
:1022D00000107D16718F3307B702998F0357C40022
:1022E00042074187634E070292079387270313072C
:1022F0004006B3D7E702BD8BD58FC207C183231435
:10230000F40005616FE06FA3624769BF9317170080
:10231000BA978E07BA9798400607B3D7E70255B722
:102320008E079387270313074006B3D7E7029D8BD9
:10233000D58FE1B791C98357C5000967D98FC20707
:10234000C1832316F50082808357C50079777D17F6
:10235000F98F2316F500828093F5F51F2312B5003F
:10236000828083570500ED8F99C305458280014522
:10237000828001A001A001A001A001A001A001A0F4
:1023800001A001A001A001A001A001A001A001A045
:1023900001A001A001A001A001A001A001A001A035
:1023A00001A001A001A001A001A001A001A001A025
:1023B00001A001A001A001A001A001A001A001A015
:1023C00001A001A001A001A001A001A001A001A005
:1023D00001A001A001A001A001A001A001A001A0F5
:1023E00001A001A001A001A001A001A001A001A0E5
:1023F00001A001A001A001A001A001A001A001A0D5
:1024000001A001A001A001A001A001A001A001A0C4
:1024100001A001A001A001A001A001A001A001A0B4
:1024200001A001A001A001A001A001A001A001A0A4
:1024300097E1FF1F9381814417610020130181BC44
:10244000171500001305C54597E5FF1F938585BB4C
:102450001386C18163FAC5008322050023A05500BD
:1024600011059105E3EAC5FE1385C181971500208A
:102470009385C5FE6377B500232005001105E36D44
:10248000B5FEFD42739002BCAD42739042809962EA
:102490009382820873A0023097E2FFFF938202BA10
:1024A00093E2320073905230EFF01F9597020000D4
:1024B000938262807390123473002030397132D469
:1024C00036D63EDA2ED23AD842DC46DE83A74181A8
:1024D0008C4754102A863E8506CE36C6C521F2406A
:1024E000216182801C51011122CC26CA4AC806CE25
:1024F0004EC652C40045AA842E8999E3EF00905E2F
:102500007C50858B81EB8357C40093F7072099E3B8
:10251000284C012C8357C400A18B99C31C48BDEFE4
:10252000A2852685152A3DC9FD547C50858B81EBFB
:102530008357C40093F7072099E3284CE522F24023
:1025400062444249B249224A2685D24405618280CA
:102550001CC4050963C907021C401387170018C073
:102560002380B7001C4483450900FD17F5F11CC406
:1025700063D907022286A94526858920FD57E305F0
:10258000F5FAA9445DB7184C63C4E700E39645FD2E
:10259000228626852520E31735FD79B7FD59294A7E
:1025A000D1B71C401387170018C029472380E700C4
:1025B000C9BFAA8503A541816FF0DFF2011122CCCA
:1025C00026CA4AC806CE4EC62A89AE84328409C5B8
:1025D0001C5199E3EF0010511C4C1CC48357C400DC
:1025E000A18B99C31C4891EFA2854A85B52011C9DA
:1025F000FD54F24062444249B2492685D244056105
:1026000082801C40184893F9F40F93F4F40F33853B
:10261000E7405C486347F500A2854A85EF00F0304B
:1026200061F91C44FD171CC41C401387170018C017
:10263000238037015848930715006309F700835733
:10264000C400858BDDD7A947E395F4FAA2854A85B6
:10265000EF00B02D59DD69BF411122C426C206C664
:10266000AA8403A541812E8409C51C5199E3EF007A
:1026700070478317C40013F7870021EB13F7070196
:1026800009EB254798C093E707042316F4007D550E
:10269000A5A8918B8DC74C5889C9930744046384BE
:1026A000F50026854920232A04028357C4002322EB
:1026B000040093F7B7FD2316F4001C481CC0835791
:1026C000C40093E787002316F4001C4889EF835762
:1026D000C4001307002093F707286386E700A2854C
:1026E0002685EF00504F8317C40013F7170015C35A
:1026F0005848232404003307E04018CC184801450B
:1027000001E713F7070841F3B24022449244410124
:10271000828013F72700814611E3544814C4F9BF9F
:10272000828082808280D1CD83A7C5FF011122CC17
:1027300006CE1384C5FF63D307003E942AC6012446
:102740001387418A1C43324581EB2322040000C3D6
:102750006244F2400561C5AA637DF4001040B306EF
:10276000C4006396D7009443DC43B29614C05CC0A7
:10277000F9BF3E87DC4399C3E37DF4FE144333067F
:10278000D700631F86001040B29614C33306D700EB
:10279000E390C7FC9043DC43B29614C35CC34DBFC7
:1027A0006375C400B1471CC165B71040B306C400CF
:1027B0006396D7009443DC43B29614C05CC040C318
:1027C00041BF828041114AC01389018A83270900D1
:1027D00022C426C206C6AA842E8491E78145EF0052
:1027E00010632320A900A2852685EF0050627D5941
:1027F000631A25017D54B240228522449244024945
:1028000041018280130435007198E30685FEB3050B
:10281000A4402685EF00B05FE31F25FDE1BF011155
:1028200026CA93843500F1984AC806CE22CC4EC6FB
:1028300052C4A104B1472A8963F8F406B14463E79E
:10284000B4064A85ED289389418A83A709003E840E
:1028500035E8A6854A85EFF0FFF6FD572A84631B0D
:10286000F50C03A40900A287DDEB5DCC032A04006C
:1028700081454A85229AEF0090596317AA0A1C40A5
:102880004A859D8CA685EFF0FFF3FD57630EF50892
:102890001C40A6971CC083A70900D9CFD843631357
:1028A000870823A2070081A0E3DB04F8B1472320B7
:1028B000F9000145F2406244D2444249B249224AF9
:1028C000056182801440858E63C806042D47637DB0
:1028D000D70204C0330794006396870223A0E9005F
:1028E0005C4014C35CC34A85B9281305B400930740
:1028F000440061993307F540E30EF5FA3A94898F65
:102900001CC04DBFD8C3E9BF58406395870023A0C2
:10291000E900D1BFD8C3C1BFA287404015BF3E84E4
:10292000DC4399B7BA8795BFB1472320F9004A85A0
:10293000192841B704C145BF232200000290138526
:1029400081896FF01FDE138581896FF0BFDD1C4622
:10295000FD171CC663DA0700184E63C5E700A947D8
:102960006394F5006FF09FC51C422E8513871700F6
:1029700018C22380B7008280011122CC26CA4AC81F
:102980004EC652C406CE2A89AE893284B304D6001C
:102990007D5A63149400014511A8834504004E86B6
:1029A0004A85EFF0DFFA0504E31545FFF240624483
:1029B000D2444249B249224A05618280357122CD12
:1029C00026CB4AC94EC706CF52C556C35AC1DEDE12
:1029D000E2DCE6DAAA89AE843289368409C51C5164
:1029E00099E3EF003010FC50858B89EB83D7C4004E
:1029F00093F7072081E7A84CEFF0BFD283D7C4003C
:102A0000A18B99C39C48A1E3A6854E85EFF0DFC456
:102A10001DC9FC50858B99CF7D55FA406A44DA4434
:102A20004A49BA492A4A9A4A0A4BF65B665CD65C1E
:102A30000D61828083D7C40093F70720F1FFA84C73
:102A4000EFF05FCED1BF93070002A304F10293071A
:102A5000000302D22305F10222C6930B5002971AFB
:102A60000000938A2AD8054C294B4A8483470400E6
:102A700099C3639D7709B30C2441630E2401E68654
:102A80004A86A6854E85EFF03FEFFD576301F51AA4
:102A90009257E6973ED283470400638A0718FD5792
:102AA0001309140002C802CE3ECA02CCA3090104D5
:102AB00082D48345090015465685EF003027C2476A
:102AC0001304190031E513F7070109C713070002C2
:102AD000A309E10413F7870009C71307B002A3098C
:102AE000E104834609001307A002638BE602F24764
:102AF0004A848146254603470400930514001307C2
:102B000007FD6375E6068DC63ECE1DA00504B9BF60
:102B1000330555413315AC00C98F3EC8228951BFDA
:102B2000324793064700184336C6634A07023ACE37
:102B3000034704009307E002631EF70403471400F1
:102B40009307A002631AF702B247090413874700EC
:102B50009C433AC663D30700FD573ECA25A83307F6
:102B6000E04093E727003ACE3EC8D9B7B387670362
:102B70002E848546BA9741B7050402CA814681472B
:102B800025460347040093051400130707FD6376E9
:102B9000E606E1F6834504000D461715000013050F
:102BA000E5C4EF00B01811CD97170000938707C454
:102BB0001D8DC247130700043317A700D98F0504E2
:102BC0003EC883450400194617150000130545C289
:102BD000130914002304B102EF00501525CD93070B
:102BE000000095E74247B2471377071009CF9107D6
:102BF0003EC69257D2973ED28DBDB38767032E84CF
:102C00008546BA97BDBF9D07E19BA107D5B7780060
:102C100097060000938686D626860C084E85970078
:102C20000000E7000000FD572A8AE314F5FCFC5081
:102C3000858B89EB83D7C40093F7072081E7A84CE5
:102C4000EFF05FAE83D7C40093F70704E39607DC89
:102C50001255E1B3780097060000938626D22686A7
:102C60000C084E85112AC1B7797156CA9C49BA8A97
:102C7000984522D44AD04ECE52CC06D626D25AC837
:102C80005EC6AA892E843289368A63D3E700BA8762
:102C90002320F9000347340401C785072320F900E6
:102CA0001C4093F7070291C7832709008907232057
:102CB000F9000440998891E8130B9401FD5B5C4492
:102CC00003270900998F63CCF40483473404B33697
:102CD000F0001C4093F70702A5EB13063404D285DD
:102CE0004E85829AFD576303F5041C4011478144C9
:102CF000998B6399E7004444832709009D8C63D333
:102D0000040081441C4418486354F700998FBE9412
:102D1000014969047D5B63982405014509A885463E
:102D20005A86D2854E85829A631E75017D55B250B2
:102D3000225492540259F249624AD24A424BB24B4F
:102D4000456182808504A5BF3307D40013060003C4
:102D5000A301C7040347540493871600A29789066A
:102D6000A381E7049DBF85462286D2854E85829A3F
:102D7000E30E65FB050945B7797122D44AD04ECEE2
:102D800052CC06D626D256CA5AC803C88501930724
:102D900080072A892E84B289368A63E20703930763
:102DA00020069386350463E10703630B081C930731
:102DB000800517160000130626A46308F814930470
:102DC00024042301040515A89307D8F993F7F70FF6
:102DD0005546E366F6FE171600001306E6A68A07B8
:102DE000B2979C43B29782871C43938425049386B1
:102DF00047009C4314C32381F50485475DA290419D
:102E00001C43137506089385470039C19C430CC3C6
:102E1000584063DD07129305D002A301B40418C41F
:102E200063500704B307F040171600001306C69C52
:102E30002948B68433F70703FD1432970347070088
:102E40002380E4003E87B3D70703E37507FFB1A8EB
:102E50009C43137506040CC345DDC207C1874DBFF3
:102E60006D9A10C0C1B78C41104313F505081C4280
:102E7000110611E593F5050499C1C207C18310C37A
:102E80001307F0061716000013060697631EE80ADC
:102E90002148A3010404584018C4E34C07F80C402F
:102EA000ED990CC0D9F7B68449F7A147631EF80025
:102EB0001C40858B91CB58401C4863C7E7009307A3
:102EC0000003A38FF4FEFD14858E14C85287CE86AE
:102ED0007000A2854A85EFF03FD9FD5A6317550D62
:102EE0007D55B250225492540259F249624AD24A54
:102EF000424B456182809C4193E707029CC11308C5
:102F000080071716000013066690A30204050C4004
:102F1000084313F805081C4111056318080013F84D
:102F2000050463040800C207C18308C313F7150032
:102F300001C793E505020CC099C3414899BF1840E9
:102F40001377F7FD18C0D5BF2948A1B717160000A1
:102F50001306868A294881B790411C43CC491378CF
:102F60000608138547006306080008C39C438CC30A
:102F700001A808C3137606049C4375DA2390B700B2
:102F800023280400B68499B71C43D0418145938619
:102F9000470014C384432685512B19C1058D48C0B1
:102FA0005C401CC8A301040415B714482686CE85CE
:102FB0004A85029AE30655F31C40898B8DE7B24798
:102FC0004844E350F5F23E8529BF85465686CE85B6
:102FD0004A85029AE30665F185045C443247998F7D
:102FE000E3C5F4FEE9BF8144930A94017D5BF5B724
:102FF0008397C500011122CC26CA06CE4AC84EC608
:1030000013F78700AA842E8471E7D8416345E00056
:10301000B8416359E008585451C7B18303A904006B
:10302000858B23A004000C50A1CF70488357C400A7
:10303000918B99C75C401D8E5C5899C33C401D8E96
:103040005C540C50814626858297FD57630EF5042B
:103050001C480567232204001CC08357C400F98F55
:1030600091C368C84C5823A024018DCD9307440414
:103070006385F5002685EFF00FEB232A04021DA0DF
:103080000146854626850297FD572A86E310F5FA04
:103090009C40C9DF75476385E70059476395E7069C
:1030A00023A024010145BDA098408317C40001CF8F
:1030B000F5466305D700D9466319D7041C48232277
:1030C00004001CC045B71848B1832322040018C06F
:1030D000858B79B783A90501E38609FC03A905005F
:1030E0008D8B23A0350133093941014791E3D8493C
:1030F00018C4E35920FB1C540C50CA864E86268502
:1031000082976340A0028317C40093E70704231645
:10311000F4007D55F2406244D2444249B24905610F
:103120008280AA993309A940E9B79C49411106C692
:1031300022C426C281EB8144B240224426859244B7
:1031400041018280AA842E8401C51C5191E3592A31
:103150008317C400EDD37850058B19E793F7072048
:1031600081E7284CEFF0EFDB2685A285EFF05FE8E2
:103170007C50AA84858BE9F38357C40093F707201A
:10318000C5FF284CEFF00FDA45BF411122C406C637
:103190002A842316B5002317C50023200500232207
:1031A0000500232405002322050623280500232AE1
:1031B0000500232C0500214681451305C505EFD0E8
:1031C0008FB8970700009387072B5CD09707000004
:1031D0009387672D1CD4970700009387A7315CD491
:1031E00097070000938767341CD800D0970700200A
:1031F00093874713630EF4009707002093870719FE
:103200006308F400970700209387C71E6319F40032
:10321000130584052244B24041016FF06FD0B240E3
:1032200022444101828017D6FF1F130666E49705EA
:1032300000009385C5EF17D5FF1F1305A5DED9A89C
:103240004C41411122C406C6970700209387870D81
:103250002A846384F500EFF05FED0C4497070020AB
:103260009387C7126385F5002285EFF01FEC4C446D
:1032700097070020938707186388F500228522446A
:10328000B24041016FF07FEAB240224441018280A6
:10329000411197070000938747F9014691451705AB
:1032A00000201305250806C623A4F18AEFF0FFEDE0
:1032B0000546A545170500201305450DEFF0FFEC69
:1032C000B2400946C945170500201305A512410162
:1032D0006FF0BFEB1385C1896FF0AFC41385C1894F
:1032E0006FF04FC4411122C406C62A84EFF09FFE3E
:1032F0001C5091C72244B24041016FF03FFE970736
:103300000000938727F41CD083A7818AE5F7EFF0AC
:103310003FF8CDB7797122D44AD04ECE52CC5AC89C
:103320005EC606D626D256CAAA892E8A328401499A
:10333000054BFD5B0444832A4400FD1A63D00A0256
:1033400000406DF8B25022549254F249624AD24A77
:10335000424BB24B4A8502594561828083D7C400F3
:10336000637BFB008397E40063877701A6854E8526
:10337000029A3369A90093848406C1B75971A2D413
:103380002E848395E500A6D2CAD086D6B28436892B
:1033900063D305028357C40093F707088DEB130727
:1033A0000040B65026542320F90098C00659965480
:1033B0000145656182803000552AE34D05FC3247A6
:1033C000BD67F98F7977BA9793B71700C9BF81475F
:1033D00013070004F9B783D7C500797122D406D644
:1033E00026D24AD04ECE898B2E8491CF9307740477
:1033F0001CC01CC885475CC8B25022549254025964
:10340000F2494561828074003000AA84EFF01FF712
:10341000A2492A892685CE85EFF06FC001ED83177A
:10342000C40013F7072069FBF19B93E727002316DD
:10343000F4006DBF8357C40008C008C893E70708AD
:103440002316F400B247232A340189CF8315E40000
:103450002685892201C98357C400F19B93E7170091
:103460002316F4008357C40033E527012316A40074
:1034700061B7411122C42E848395E50006C69D22C2
:10348000634905007C48AA977CC8B24022444101A8
:1034900082808357C4007D777D17F98F2316F4004F
:1034A000EDB783D7C500011122CC26CA4AC84EC643
:1034B00006CE93F70710AA842E843289B68991C765
:1034C0008395E50089460146CD288357C4007D7762
:1034D0007D17F98F8315E4002316F4006244F2404F
:1034E000CE864A86B24942492685D2440561A1A2C8
:1034F000411122C42E848395E50006C67D287D57A0
:103500008357C400631BE5007D777D17F98F231671
:10351000F400B2402244410182800567D98F23160E
:10352000F40068C8FDB78395E50031A893F5F50F61
:103530002A966314C5000145828083470500E38D08
:10354000B7FE0505FDB7411122C42A842E8523A6A6
:10355000018A06C63922FD576316F50083A7C18A82
:1035600091C31CC0B240224441018280411122C457
:103570002A842E85B28523A6018A06C6CD28FD574A
:103580006316F50083A7C18A91C31CC0B2402244D0
:1035900041018280411122C42A842E8523A6018AFA
:1035A00006C6E128FD576316F50083A7C18A91C3BB
:1035B0001CC0B240224441018280411122C42A84AD
:1035C0002E85B285368623A6018A06C66D28FD574C
:1035D0006316F50083A7C18A91C31CC0B240224480
:1035E00041018280411122C42A842E85B28536860B
:1035F00023A6018A06C67128FD576316F50083A726
:10360000C18A91C31CC0B240224441018280411151
:1036100022C42A842E8523A6018A06C6EFE08FDB0A
:10362000FD576316F50083A7C18A91C31CC0B24041
:10363000224441018280411122C42A842E85B28510
:10364000368623A6018A06C6EFE08FD4FD5763169F
:10365000F50083A7C18A91C31CC0B2402244410136
:1036600082809307800523A6F18A7D558280930787
:10367000800523A6F18A7D5582809307800523A6C5
:10368000F18A014582809307800523A6F18A7D5542
:1036900082809307800523A6F18A7D5582800000F1
:1036A0005352432F4672656552544F532F686561DC
:1036B000705F342E63000000657272206174206CAC
:1036C000696E65202564206F662066696C6520221E
:1036D0002573222E200D0A20000000005352432F94
:1036E0004672656552544F532F706F72742E63008B
:1036F0005352432F4672656552544F532F7175656F
:1037000075652E63000000005352432F46726565B5
:1037100052544F532F7461736B732E63000000007B
:1037200049444C45000000005352432F46726565E2
:1037300052544F532F74696D6572732E63000000ED
:10374000546D725100000000546D72205376630076
:103750007461736B3120656E7472790D0000000026
:103760007461736B3220656E7472790D0000000015
:1037700053797374656D436C6B3A25640D0A0000D0
:103780004368697049443A253038780D0A000000D2
:103790005631302E342E36004672656552544F53E2
:1037A000204B65726E656C2056657273696F6E3A58
:1037B00025730D0A000000007461736B3200000075
:1037C0007461736B3100000073686F756C646E27F1
:1037D000742072756E206174206865726521210005
:1037E000232D302B20000000686C4C006566674577
:1037F00046470000303132333435363738394142AC
:10380000434445460000000030313233343536370A
:103810003839616263646566000000006E1900005B
:10382000B8190000B8190000FC190000081A0000BF
:10383000481A0000B8190000B8190000FC1900006F
:10384000081A0000A4F5FFFFBAF5FFFF7AF5FFFFA5
:103850007AF5FFFF7AF5FFFF7AF5FFFFBAF5FFFF74
:103860007AF5FFFF7AF5FFFF7AF5FFFF7AF5FFFFA4
:1038700014F7FFFF22F6FFFFB2F6FFFF7AF5FFFF16
:103880007AF5FFFF44F7FFFF7AF5FFFF22F6FFFF0F
:0C3890007AF5FFFF7AF5FFFFBAF6FFFFA4
:10389C0000000000000000000102030406070809F4
:1038AC0000000000010203040102030406070809DA
:1038BC00000000002033002088330020F03300206B
:1038CC0000000000000000000000000000000000EC
:1038DC0000000000000000000000000000000000DC
:1038EC0000000000000000000000000000000000CC
:1038FC0000000000000000000000000000000000BC
:10390C000300000020330020AAAAAAAA0E0000007F
:10391C0058340020004495080204060820000020BA
:04392C0000800020F7
:00000001FF
